{
  "_format": "hh-sol-artifact-1",
  "contractName": "RealEstate",
  "sourceName": "contracts/RealEstate.sol",
  "abi": [
    {
      "inputs": [],
      "stateMutability": "nonpayable",
      "type": "constructor"
    },
    {
      "anonymous": false,
      "inputs": [
        {
          "indexed": true,
          "internalType": "uint256",
          "name": "id",
          "type": "uint256"
        },
        {
          "indexed": false,
          "internalType": "address",
          "name": "recipient",
          "type": "address"
        },
        {
          "indexed": false,
          "internalType": "bool",
          "name": "refunded",
          "type": "bool"
        }
      ],
      "name": "DisputeResolved",
      "type": "event"
    },
    {
      "anonymous": false,
      "inputs": [
        {
          "indexed": true,
          "internalType": "uint256",
          "name": "nftId",
          "type": "uint256"
        },
        {
          "indexed": true,
          "internalType": "address",
          "name": "owner",
          "type": "address"
        },
        {
          "indexed": true,
          "internalType": "uint256",
          "name": "propertyId",
          "type": "uint256"
        }
      ],
      "name": "NFTMinted",
      "type": "event"
    },
    {
      "anonymous": false,
      "inputs": [
        {
          "indexed": true,
          "internalType": "uint256",
          "name": "id",
          "type": "uint256"
        },
        {
          "indexed": true,
          "internalType": "address",
          "name": "buyer",
          "type": "address"
        },
        {
          "indexed": false,
          "internalType": "uint256",
          "name": "amount",
          "type": "uint256"
        },
        {
          "indexed": false,
          "internalType": "uint256",
          "name": "expiresAt",
          "type": "uint256"
        }
      ],
      "name": "PaymentDeposited",
      "type": "event"
    },
    {
      "anonymous": false,
      "inputs": [
        {
          "indexed": true,
          "internalType": "uint256",
          "name": "id",
          "type": "uint256"
        },
        {
          "indexed": true,
          "internalType": "address",
          "name": "owner",
          "type": "address"
        },
        {
          "indexed": false,
          "internalType": "uint256",
          "name": "price",
          "type": "uint256"
        }
      ],
      "name": "PropertyListed",
      "type": "event"
    },
    {
      "anonymous": false,
      "inputs": [
        {
          "indexed": true,
          "internalType": "uint256",
          "name": "id",
          "type": "uint256"
        },
        {
          "indexed": true,
          "internalType": "address",
          "name": "oldOwner",
          "type": "address"
        },
        {
          "indexed": true,
          "internalType": "address",
          "name": "newOwner",
          "type": "address"
        },
        {
          "indexed": false,
          "internalType": "uint256",
          "name": "price",
          "type": "uint256"
        }
      ],
      "name": "PropertySold",
      "type": "event"
    },
    {
      "anonymous": false,
      "inputs": [
        {
          "indexed": true,
          "internalType": "uint256",
          "name": "productId",
          "type": "uint256"
        },
        {
          "indexed": true,
          "internalType": "address",
          "name": "reviewer",
          "type": "address"
        },
        {
          "indexed": false,
          "internalType": "uint256",
          "name": "rating",
          "type": "uint256"
        },
        {
          "indexed": false,
          "internalType": "string",
          "name": "comment",
          "type": "string"
        }
      ],
      "name": "ReviewAdded",
      "type": "event"
    },
    {
      "anonymous": false,
      "inputs": [
        {
          "indexed": true,
          "internalType": "uint256",
          "name": "productId",
          "type": "uint256"
        },
        {
          "indexed": true,
          "internalType": "uint256",
          "name": "reviewIndex",
          "type": "uint256"
        },
        {
          "indexed": true,
          "internalType": "address",
          "name": "liker",
          "type": "address"
        },
        {
          "indexed": false,
          "internalType": "uint256",
          "name": "likes",
          "type": "uint256"
        }
      ],
      "name": "ReviewLiked",
      "type": "event"
    },
    {
      "inputs": [],
      "name": "MAX_ESCROW_DURATION",
      "outputs": [
        {
          "internalType": "uint256",
          "name": "",
          "type": "uint256"
        }
      ],
      "stateMutability": "view",
      "type": "function"
    },
    {
      "inputs": [],
      "name": "MIN_ESCROW_DURATION",
      "outputs": [
        {
          "internalType": "uint256",
          "name": "",
          "type": "uint256"
        }
      ],
      "stateMutability": "view",
      "type": "function"
    },
    {
      "inputs": [
        {
          "internalType": "uint256",
          "name": "productId",
          "type": "uint256"
        },
        {
          "internalType": "uint256",
          "name": "rating",
          "type": "uint256"
        },
        {
          "internalType": "string",
          "name": "comment",
          "type": "string"
        },
        {
          "internalType": "address",
          "name": "user",
          "type": "address"
        }
      ],
      "name": "addReview",
      "outputs": [],
      "stateMutability": "nonpayable",
      "type": "function"
    },
    {
      "inputs": [],
      "name": "admin",
      "outputs": [
        {
          "internalType": "address",
          "name": "",
          "type": "address"
        }
      ],
      "stateMutability": "view",
      "type": "function"
    },
    {
      "inputs": [
        {
          "internalType": "uint256",
          "name": "id",
          "type": "uint256"
        }
      ],
      "name": "claimExpiredEscrow",
      "outputs": [],
      "stateMutability": "nonpayable",
      "type": "function"
    },
    {
      "inputs": [
        {
          "internalType": "uint256",
          "name": "id",
          "type": "uint256"
        }
      ],
      "name": "confirmPurchase",
      "outputs": [],
      "stateMutability": "nonpayable",
      "type": "function"
    },
    {
      "inputs": [
        {
          "internalType": "uint256",
          "name": "id",
          "type": "uint256"
        },
        {
          "internalType": "uint256",
          "name": "duration",
          "type": "uint256"
        }
      ],
      "name": "depositPayment",
      "outputs": [],
      "stateMutability": "payable",
      "type": "function"
    },
    {
      "inputs": [
        {
          "internalType": "uint256",
          "name": "",
          "type": "uint256"
        }
      ],
      "name": "escrows",
      "outputs": [
        {
          "internalType": "address",
          "name": "buyer",
          "type": "address"
        },
        {
          "internalType": "uint256",
          "name": "amount",
          "type": "uint256"
        },
        {
          "internalType": "bool",
          "name": "confirmed",
          "type": "bool"
        },
        {
          "internalType": "bool",
          "name": "refunded",
          "type": "bool"
        },
        {
          "internalType": "uint256",
          "name": "createdAt",
          "type": "uint256"
        },
        {
          "internalType": "uint256",
          "name": "expiresAt",
          "type": "uint256"
        }
      ],
      "stateMutability": "view",
      "type": "function"
    },
    {
      "inputs": [],
      "name": "getAllProperties",
      "outputs": [
        {
          "components": [
            {
              "internalType": "uint256",
              "name": "productID",
              "type": "uint256"
            },
            {
              "internalType": "address payable",
              "name": "owner",
              "type": "address"
            },
            {
              "internalType": "uint256",
              "name": "nftId",
              "type": "uint256"
            },
            {
              "internalType": "uint256",
              "name": "price",
              "type": "uint256"
            },
            {
              "internalType": "string",
              "name": "propertyTitle",
              "type": "string"
            },
            {
              "internalType": "string",
              "name": "category",
              "type": "string"
            },
            {
              "internalType": "string[]",
              "name": "images",
              "type": "string[]"
            },
            {
              "internalType": "string",
              "name": "propertyAddress",
              "type": "string"
            },
            {
              "internalType": "string",
              "name": "description",
              "type": "string"
            },
            {
              "internalType": "address[]",
              "name": "reviewers",
              "type": "address[]"
            },
            {
              "internalType": "string[]",
              "name": "reviews",
              "type": "string[]"
            },
            {
              "internalType": "bool",
              "name": "sold",
              "type": "bool"
            }
          ],
          "internalType": "struct RealEstate.Property[]",
          "name": "",
          "type": "tuple[]"
        }
      ],
      "stateMutability": "view",
      "type": "function"
    },
    {
      "inputs": [],
      "name": "getHighestRatedProduct",
      "outputs": [
        {
          "internalType": "uint256",
          "name": "",
          "type": "uint256"
        }
      ],
      "stateMutability": "view",
      "type": "function"
    },
    {
      "inputs": [],
      "name": "getLatestEthPrice",
      "outputs": [
        {
          "internalType": "uint256",
          "name": "price",
          "type": "uint256"
        }
      ],
      "stateMutability": "view",
      "type": "function"
    },
    {
      "inputs": [
        {
          "internalType": "uint256",
          "name": "productId",
          "type": "uint256"
        }
      ],
      "name": "getProductReview",
      "outputs": [
        {
          "components": [
            {
              "internalType": "address",
              "name": "reviewer",
              "type": "address"
            },
            {
              "internalType": "uint256",
              "name": "productId",
              "type": "uint256"
            },
            {
              "internalType": "uint256",
              "name": "rating",
              "type": "uint256"
            },
            {
              "internalType": "string",
              "name": "comment",
              "type": "string"
            },
            {
              "internalType": "uint256",
              "name": "likes",
              "type": "uint256"
            }
          ],
          "internalType": "struct RealEstate.Review[]",
          "name": "",
          "type": "tuple[]"
        }
      ],
      "stateMutability": "view",
      "type": "function"
    },
    {
      "inputs": [
        {
          "internalType": "uint256",
          "name": "id",
          "type": "uint256"
        }
      ],
      "name": "getProperty",
      "outputs": [
        {
          "internalType": "uint256",
          "name": "",
          "type": "uint256"
        },
        {
          "internalType": "address",
          "name": "",
          "type": "address"
        },
        {
          "internalType": "uint256",
          "name": "",
          "type": "uint256"
        },
        {
          "internalType": "string",
          "name": "",
          "type": "string"
        },
        {
          "internalType": "string",
          "name": "",
          "type": "string"
        },
        {
          "internalType": "string[]",
          "name": "",
          "type": "string[]"
        },
        {
          "internalType": "string",
          "name": "",
          "type": "string"
        },
        {
          "internalType": "string",
          "name": "",
          "type": "string"
        },
        {
          "internalType": "bool",
          "name": "",
          "type": "bool"
        }
      ],
      "stateMutability": "view",
      "type": "function"
    },
    {
      "inputs": [
        {
          "internalType": "uint256",
          "name": "propertyId",
          "type": "uint256"
        }
      ],
      "name": "getRequiredEth",
      "outputs": [
        {
          "internalType": "uint256",
          "name": "",
          "type": "uint256"
        }
      ],
      "stateMutability": "view",
      "type": "function"
    },
    {
      "inputs": [
        {
          "internalType": "address",
          "name": "user",
          "type": "address"
        }
      ],
      "name": "getUserProperties",
      "outputs": [
        {
          "components": [
            {
              "internalType": "uint256",
              "name": "productID",
              "type": "uint256"
            },
            {
              "internalType": "address payable",
              "name": "owner",
              "type": "address"
            },
            {
              "internalType": "uint256",
              "name": "nftId",
              "type": "uint256"
            },
            {
              "internalType": "uint256",
              "name": "price",
              "type": "uint256"
            },
            {
              "internalType": "string",
              "name": "propertyTitle",
              "type": "string"
            },
            {
              "internalType": "string",
              "name": "category",
              "type": "string"
            },
            {
              "internalType": "string[]",
              "name": "images",
              "type": "string[]"
            },
            {
              "internalType": "string",
              "name": "propertyAddress",
              "type": "string"
            },
            {
              "internalType": "string",
              "name": "description",
              "type": "string"
            },
            {
              "internalType": "address[]",
              "name": "reviewers",
              "type": "address[]"
            },
            {
              "internalType": "string[]",
              "name": "reviews",
              "type": "string[]"
            },
            {
              "internalType": "bool",
              "name": "sold",
              "type": "bool"
            }
          ],
          "internalType": "struct RealEstate.Property[]",
          "name": "",
          "type": "tuple[]"
        }
      ],
      "stateMutability": "view",
      "type": "function"
    },
    {
      "inputs": [
        {
          "internalType": "uint256",
          "name": "",
          "type": "uint256"
        },
        {
          "internalType": "address",
          "name": "",
          "type": "address"
        }
      ],
      "name": "hasLikedReview",
      "outputs": [
        {
          "internalType": "bool",
          "name": "",
          "type": "bool"
        }
      ],
      "stateMutability": "view",
      "type": "function"
    },
    {
      "inputs": [],
      "name": "kycVerifier",
      "outputs": [
        {
          "internalType": "contract IKYCVerifier",
          "name": "",
          "type": "address"
        }
      ],
      "stateMutability": "view",
      "type": "function"
    },
    {
      "inputs": [
        {
          "internalType": "uint256",
          "name": "productId",
          "type": "uint256"
        },
        {
          "internalType": "uint256",
          "name": "reviewIndex",
          "type": "uint256"
        },
        {
          "internalType": "address",
          "name": "user",
          "type": "address"
        }
      ],
      "name": "likeReview",
      "outputs": [],
      "stateMutability": "nonpayable",
      "type": "function"
    },
    {
      "inputs": [
        {
          "internalType": "address payable",
          "name": "owner",
          "type": "address"
        },
        {
          "internalType": "uint256",
          "name": "price",
          "type": "uint256"
        },
        {
          "internalType": "string",
          "name": "_propertyTitle",
          "type": "string"
        },
        {
          "internalType": "string",
          "name": "_category",
          "type": "string"
        },
        {
          "internalType": "string[]",
          "name": "_images",
          "type": "string[]"
        },
        {
          "internalType": "string",
          "name": "_propertyAddress",
          "type": "string"
        },
        {
          "internalType": "string",
          "name": "_description",
          "type": "string"
        }
      ],
      "name": "listProperty",
      "outputs": [
        {
          "internalType": "uint256",
          "name": "",
          "type": "uint256"
        }
      ],
      "stateMutability": "nonpayable",
      "type": "function"
    },
    {
      "inputs": [],
      "name": "propertyIndex",
      "outputs": [
        {
          "internalType": "uint256",
          "name": "",
          "type": "uint256"
        }
      ],
      "stateMutability": "view",
      "type": "function"
    },
    {
      "inputs": [],
      "name": "propertyNFT",
      "outputs": [
        {
          "internalType": "contract RealEstateNFT",
          "name": "",
          "type": "address"
        }
      ],
      "stateMutability": "view",
      "type": "function"
    },
    {
      "inputs": [
        {
          "internalType": "uint256",
          "name": "id",
          "type": "uint256"
        },
        {
          "internalType": "bool",
          "name": "refundBuyer",
          "type": "bool"
        }
      ],
      "name": "resolveDispute",
      "outputs": [],
      "stateMutability": "nonpayable",
      "type": "function"
    },
    {
      "inputs": [],
      "name": "reviewsCounter",
      "outputs": [
        {
          "internalType": "uint256",
          "name": "",
          "type": "uint256"
        }
      ],
      "stateMutability": "view",
      "type": "function"
    },
    {
      "inputs": [
        {
          "internalType": "uint256",
          "name": "productId",
          "type": "uint256"
        },
        {
          "internalType": "uint256",
          "name": "price",
          "type": "uint256"
        }
      ],
      "name": "updatePrice",
      "outputs": [
        {
          "internalType": "string",
          "name": "",
          "type": "string"
        }
      ],
      "stateMutability": "nonpayable",
      "type": "function"
    },
    {
      "inputs": [
        {
          "internalType": "address",
          "name": "owner",
          "type": "address"
        },
        {
          "internalType": "uint256",
          "name": "productId",
          "type": "uint256"
        },
        {
          "internalType": "string[]",
          "name": "_images",
          "type": "string[]"
        },
        {
          "internalType": "string",
          "name": "_propertyAddress",
          "type": "string"
        },
        {
          "internalType": "string",
          "name": "_propertyTitle",
          "type": "string"
        },
        {
          "internalType": "string",
          "name": "_category",
          "type": "string"
        },
        {
          "internalType": "string",
          "name": "_description",
          "type": "string"
        }
      ],
      "name": "updateProperty",
      "outputs": [
        {
          "internalType": "uint256",
          "name": "",
          "type": "uint256"
        }
      ],
      "stateMutability": "nonpayable",
      "type": "function"
    }
  ],
  "bytecode": "0x60806040523480156200001157600080fd5b506001600081905580546001600160a01b0319908116331790915560028054821673022f9dcc73c5fb43f2b4ef2ef9ad3edd1d853946179055600380549091167373be0078b59fffe2ce9f0007496258d11ee746de17905560405162000077906200010c565b604051809103906000f08015801562000094573d6000803e3d6000fd5b50600480546001600160a01b0319166001600160a01b03929092169182178155604051637e51dad560e11b8152309181019190915263fca3b5aa90602401600060405180830381600087803b158015620000ed57600080fd5b505af115801562000102573d6000803e3d6000fd5b505050506200011a565b611a47806200461483390190565b6144ea806200012a6000396000f3fe6080604052600436106101665760003560e01c80635f28761b116100d1578063b937e7cc1161008a578063ca6445af11610064578063ca6445af146104d3578063dc035e6d146104f3578063f56720b514610513578063f851a4401461052957600080fd5b8063b937e7cc14610448578063bec1d60814610468578063c0c90b1b1461048857600080fd5b80635f28761b146103a757806382367b2d146103c7578063844ce562146103f45780639bdc727c1461040a578063a23967401461041d578063a3007b1f1461043357600080fd5b806334da849b1161012357806334da849b146102cd578063372d892d146102ed57806337f768381461030d5780633d51402c146103455780633fca03671461035a5780634d24e9021461038757600080fd5b8063012f52ee1461016b578063060a3e611461020f5780630794305e1461023c57806330c0b9ec1461026157806332665ffb1461027657806334b25ee2146102ab575b600080fd5b34801561017757600080fd5b506101cb6101863660046136ad565b600660205260009081526040902080546001820154600283015460038401546004909401546001600160a01b0390931693919260ff8083169361010090930416919086565b604080516001600160a01b03909716875260208701959095529215159385019390935215156060840152608083019190915260a082015260c0015b60405180910390f35b34801561021b57600080fd5b5061022f61022a3660046136eb565b610549565b60405161020691906137f4565b34801561024857600080fd5b5061025362093a8081565b604051908152602001610206565b34801561026d57600080fd5b50610253610b17565b34801561028257600080fd5b506102966102913660046136ad565b610d23565b60405161020699989796959493929190613955565b3480156102b757600080fd5b506102cb6102c6366004613a43565b611267565b005b3480156102d957600080fd5b506102536102e83660046136ad565b61164b565b3480156102f957600080fd5b50610253610308366004613bc9565b611c03565b34801561031957600080fd5b5060045461032d906001600160a01b031681565b6040516001600160a01b039091168152602001610206565b34801561035157600080fd5b5061022f611f47565b34801561036657600080fd5b5061037a6103753660046136ad565b61249c565b6040516102069190613cb5565b34801561039357600080fd5b506102cb6103a23660046136ad565b6125d5565b3480156103b357600080fd5b506102536103c2366004613d4c565b6129f4565b3480156103d357600080fd5b506103e76103e2366004613de4565b612af6565b6040516102069190613e06565b34801561040057600080fd5b50610253600c5481565b6102cb610418366004613de4565b612b82565b34801561042957600080fd5b5061025361012c81565b34801561043f57600080fd5b50610253612f12565b34801561045457600080fd5b5060035461032d906001600160a01b031681565b34801561047457600080fd5b506102cb6104833660046136ad565b612f77565b34801561049457600080fd5b506104c36104a3366004613e19565b600a60209081526000928352604080842090915290825290205460ff1681565b6040519015158152602001610206565b3480156104df57600080fd5b506102cb6104ee366004613e3e565b613227565b3480156104ff57600080fd5b506102cb61050e366004613ed9565b613490565b34801561051f57600080fd5b50610253600b5481565b34801561053557600080fd5b5060015461032d906001600160a01b031681565b60606000805b600b54811015610593576000818152600560205260409020600101546001600160a01b0380861691160361058b578161058781613f28565b9250505b60010161054f565b5060008167ffffffffffffffff8111156105af576105af613a73565b6040519080825280602002602001820160405280156105e857816020015b6105d56135b5565b8152602001906001900390816105cd5790505b5090506000805b600b54811015610b0d576000818152600560205260409020600101546001600160a01b03808816911603610b05576000818152600560209081526040918290208251610180810184528154815260018201546001600160a01b0316928101929092526002810154928201929092526003820154606082015260048201805491929160808401919061067f90613f41565b80601f01602080910402602001604051908101604052809291908181526020018280546106ab90613f41565b80156106f85780601f106106cd576101008083540402835291602001916106f8565b820191906000526020600020905b8154815290600101906020018083116106db57829003601f168201915b5050505050815260200160058201805461071190613f41565b80601f016020809104026020016040519081016040528092919081815260200182805461073d90613f41565b801561078a5780601f1061075f5761010080835404028352916020019161078a565b820191906000526020600020905b81548152906001019060200180831161076d57829003601f168201915b5050505050815260200160068201805480602002602001604051908101604052809291908181526020016000905b828210156108645783829060005260206000200180546107d790613f41565b80601f016020809104026020016040519081016040528092919081815260200182805461080390613f41565b80156108505780601f1061082557610100808354040283529160200191610850565b820191906000526020600020905b81548152906001019060200180831161083357829003601f168201915b5050505050815260200190600101906107b8565b50505050815260200160078201805461087c90613f41565b80601f01602080910402602001604051908101604052809291908181526020018280546108a890613f41565b80156108f55780601f106108ca576101008083540402835291602001916108f5565b820191906000526020600020905b8154815290600101906020018083116108d857829003601f168201915b5050505050815260200160088201805461090e90613f41565b80601f016020809104026020016040519081016040528092919081815260200182805461093a90613f41565b80156109875780601f1061095c57610100808354040283529160200191610987565b820191906000526020600020905b81548152906001019060200180831161096a57829003601f168201915b50505050508152602001600982018054806020026020016040519081016040528092919081815260200182805480156109e957602002820191906000526020600020905b81546001600160a01b031681526001909101906020018083116109cb575b50505050508152602001600a8201805480602002602001604051908101604052809291908181526020016000905b82821015610ac3578382906000526020600020018054610a3690613f41565b80601f0160208091040260200160405190810160405280929190818152602001828054610a6290613f41565b8015610aaf5780601f10610a8457610100808354040283529160200191610aaf565b820191906000526020600020905b815481529060010190602001808311610a9257829003601f168201915b505050505081526020019060010190610a17565b50505090825250600b919091015460ff1615156020909101528383610ae781613f28565b945081518110610af957610af9613f7b565b60200260200101819052505b6001016105ef565b5090949350505050565b6000806000600260009054906101000a90046001600160a01b03166001600160a01b031663feaf968c6040518163ffffffff1660e01b815260040160a060405180830381865afa158015610b6f573d6000803e3d6000fd5b505050506040513d601f19601f82011682018060405250810190610b939190613fab565b509350509250506000600260009054906101000a90046001600160a01b03166001600160a01b031663313ce5676040518163ffffffff1660e01b8152600401602060405180830381865afa158015610bef573d6000803e3d6000fd5b505050506040513d601f19601f82011682018060405250810190610c139190613ffb565b905060008313610c6a5760405162461bcd60e51b815260206004820152601d60248201527f496e76616c6964204554482070726963652066726f6d206f7261636c6500000060448201526064015b60405180910390fd5b610e10610c77834261401e565b1115610cba5760405162461bcd60e51b81526020600482015260126024820152715374616c65206f7261636c6520707269636560701b6044820152606401610c61565b60128160ff161015610ced57610cd1816012614031565b610cdc90600a61412e565b610ce6908461413d565b9350610d1d565b60128160ff161115610d1957610d04601282614031565b610d0f90600a61412e565b610ce6908461416a565b8293505b50505090565b60008060006060806060806060600080600560008c815260200190815260200160002060405180610180016040529081600082015481526020016001820160009054906101000a90046001600160a01b03166001600160a01b03166001600160a01b031681526020016002820154815260200160038201548152602001600482018054610daf90613f41565b80601f0160208091040260200160405190810160405280929190818152602001828054610ddb90613f41565b8015610e285780601f10610dfd57610100808354040283529160200191610e28565b820191906000526020600020905b815481529060010190602001808311610e0b57829003601f168201915b50505050508152602001600582018054610e4190613f41565b80601f0160208091040260200160405190810160405280929190818152602001828054610e6d90613f41565b8015610eba5780601f10610e8f57610100808354040283529160200191610eba565b820191906000526020600020905b815481529060010190602001808311610e9d57829003601f168201915b5050505050815260200160068201805480602002602001604051908101604052809291908181526020016000905b82821015610f94578382906000526020600020018054610f0790613f41565b80601f0160208091040260200160405190810160405280929190818152602001828054610f3390613f41565b8015610f805780601f10610f5557610100808354040283529160200191610f80565b820191906000526020600020905b815481529060010190602001808311610f6357829003601f168201915b505050505081526020019060010190610ee8565b505050508152602001600782018054610fac90613f41565b80601f0160208091040260200160405190810160405280929190818152602001828054610fd890613f41565b80156110255780601f10610ffa57610100808354040283529160200191611025565b820191906000526020600020905b81548152906001019060200180831161100857829003601f168201915b5050505050815260200160088201805461103e90613f41565b80601f016020809104026020016040519081016040528092919081815260200182805461106a90613f41565b80156110b75780601f1061108c576101008083540402835291602001916110b7565b820191906000526020600020905b81548152906001019060200180831161109a57829003601f168201915b505050505081526020016009820180548060200260200160405190810160405280929190818152602001828054801561111957602002820191906000526020600020905b81546001600160a01b031681526001909101906020018083116110fb575b50505050508152602001600a8201805480602002602001604051908101604052809291908181526020016000905b828210156111f357838290600052602060002001805461116690613f41565b80601f016020809104026020016040519081016040528092919081815260200182805461119290613f41565b80156111df5780601f106111b4576101008083540402835291602001916111df565b820191906000526020600020905b8154815290600101906020018083116111c257829003601f168201915b505050505081526020019060010190611147565b505050508152602001600b820160009054906101000a900460ff161515151581525050905080600001518160200151826060015183608001518460a001518560c001518660e00151876101000151886101600151995099509950995099509950995099509950509193959799909294969850565b6002600054036112895760405162461bcd60e51b8152600401610c619061417e565b60026000556001546001600160a01b031633146112d55760405162461bcd60e51b815260206004820152600a60248201526927b7363c9030b236b4b760b11b6044820152606401610c61565b81600b5481106112f75760405162461bcd60e51b8152600401610c61906141b5565b6000818152600560205260409020600101546001600160a01b031661132e5760405162461bcd60e51b8152600401610c61906141e2565b6001546001600160a01b031633146113755760405162461bcd60e51b815260206004820152600a60248201526927b7363c9030b236b4b760b11b6044820152606401610c61565b60008381526006602090815260408083206005909252909120600282015460ff16156113d75760405162461bcd60e51b8152602060048201526011602482015270105b1c9958591e4818dbdb999a5c9b5959607a1b6044820152606401610c61565b600082600101541161141f5760405162461bcd60e51b81526020600482015260116024820152704e6f20657363726f7765642066756e647360781b6044820152606401610c61565b600282018054600161ffff1990911661010087151502178117909155600b8201805460ff19168217905582018054600091829055908561146c5760018301546001600160a01b0316611478565b83546001600160a01b03165b90506000816001600160a01b03168360405160006040518083038185875af1925050503d80600081146114c7576040519150601f19603f3d011682016040523d82523d6000602084013e6114cc565b606091505b505090508061150f5760405162461bcd60e51b815260206004820152600f60248201526e151c985b9cd9995c8819985a5b1959608a1b6044820152606401610c61565b866115f75760018401805486546001600160a01b039081166001600160a01b03198316179092556004805488546002890154604051632142170760e11b81523094810194909452908516602484015260448301529183169291909116906342842e0e90606401600060405180830381600087803b15801561158f57600080fd5b505af11580156115a3573d6000803e3d6000fd5b50505050600185015460038601546040519081526001600160a01b03918216918316908b907fddd64180d9701c7ede08673ac8106484ff983a472929330d4fbde4e35d65cb069060200160405180910390a4505b604080516001600160a01b0384168152881515602082015289917f8fdd4548a8481406b6e29c0d6f25e27cd72502f79f4adf409468502e7920dabc910160405180910390a250506001600055505050505050565b60008181526005602090815260408083208151610180810183528154815260018201546001600160a01b031693810193909352600281015491830191909152600381015460608301526004810180548493929160808401916116ac90613f41565b80601f01602080910402602001604051908101604052809291908181526020018280546116d890613f41565b80156117255780601f106116fa57610100808354040283529160200191611725565b820191906000526020600020905b81548152906001019060200180831161170857829003601f168201915b5050505050815260200160058201805461173e90613f41565b80601f016020809104026020016040519081016040528092919081815260200182805461176a90613f41565b80156117b75780601f1061178c576101008083540402835291602001916117b7565b820191906000526020600020905b81548152906001019060200180831161179a57829003601f168201915b5050505050815260200160068201805480602002602001604051908101604052809291908181526020016000905b8282101561189157838290600052602060002001805461180490613f41565b80601f016020809104026020016040519081016040528092919081815260200182805461183090613f41565b801561187d5780601f106118525761010080835404028352916020019161187d565b820191906000526020600020905b81548152906001019060200180831161186057829003601f168201915b5050505050815260200190600101906117e5565b5050505081526020016007820180546118a990613f41565b80601f01602080910402602001604051908101604052809291908181526020018280546118d590613f41565b80156119225780601f106118f757610100808354040283529160200191611922565b820191906000526020600020905b81548152906001019060200180831161190557829003601f168201915b5050505050815260200160088201805461193b90613f41565b80601f016020809104026020016040519081016040528092919081815260200182805461196790613f41565b80156119b45780601f10611989576101008083540402835291602001916119b4565b820191906000526020600020905b81548152906001019060200180831161199757829003601f168201915b5050505050815260200160098201805480602002602001604051908101604052809291908181526020018280548015611a1657602002820191906000526020600020905b81546001600160a01b031681526001909101906020018083116119f8575b50505050508152602001600a8201805480602002602001604051908101604052809291908181526020016000905b82821015611af0578382906000526020600020018054611a6390613f41565b80601f0160208091040260200160405190810160405280929190818152602001828054611a8f90613f41565b8015611adc5780601f10611ab157610100808354040283529160200191611adc565b820191906000526020600020905b815481529060010190602001808311611abf57829003601f168201915b505050505081526020019060010190611a44565b50505090825250600b919091015460ff16151560209091015261016081015190915015611b4e5760405162461bcd60e51b815260206004820152600c60248201526b105b1c9958591e481cdbdb1960a21b6044820152606401610c61565b6000611b58610b17565b905060008111611b9e5760405162461bcd60e51b8152602060048201526011602482015270455448207072696365206973207a65726f60781b6044820152606401610c61565b6000818360600151670de0b6b3a7640000611bb9919061413d565b611bc3919061416a565b9050818360600151670de0b6b3a7640000611bde919061413d565b611be8919061420e565b15611bfb57611bf8600182614222565b90505b949350505050565b6000808711611c485760405162461bcd60e51b815260206004820152601160248201527005072696365206d757374206265203e203607c1b6044820152606401610c61565b336001600160a01b03891614611c975760405162461bcd60e51b815260206004820152601460248201527321b0b63632b91036bab9ba1031329037bbb732b960611b6044820152606401610c61565b6003546040516373bed91960e11b81526001600160a01b038a811660048301529091169063e77db23290602401602060405180830381865afa158015611ce1573d6000803e3d6000fd5b505050506040513d601f19601f82011682018060405250810190611d059190614235565b611d4a5760405162461bcd60e51b815260206004820152601660248201527513dddb995c881b9bdd0812d650c8185c1c1c9bdd995960521b6044820152606401610c61565b600b805460009182611d5b83613f28565b9091555060008181526005602052604090208181556001810180546001600160a01b0319166001600160a01b038d16179055600381018a905590915060048101611da589826142a3565b5060058101611db488826142a3565b5060078101611dc386826142a3565b5060088101611dd285826142a3565b5060005b8651811015611e275781600601878281518110611df557611df5613f7b565b60209081029190910181015182546001810184556000938452919092200190611e1e90826142a3565b50600101611dd6565b5060045486516000916001600160a01b03169063177dc17f9030908a908590611e5257611e52613f7b565b60200260200101516040518363ffffffff1660e01b8152600401611e77929190614363565b6020604051808303816000875af1158015611e96573d6000803e3d6000fd5b505050506040513d601f19601f82011682018060405250810190611eba9190614387565b90508082600201819055508a6001600160a01b0316837f23fb658c1698b92f5fe511a079c17ecf7965cbc3f1b873328c67e2c3c0820f1f8c604051611f0191815260200190565b60405180910390a36040518390309083907f055e34067993de700e7f718f190fdccc92a27695bb9068504a1a44258577f8eb90600090a450909998505050505050505050565b600b5460609060008167ffffffffffffffff811115611f6857611f68613a73565b604051908082528060200260200182016040528015611fa157816020015b611f8e6135b5565b815260200190600190039081611f865790505b50905060005b82811015612495576000818152600560209081526040918290208251610180810184528154815260018201546001600160a01b0316928101929092526002810154928201929092526003820154606082015260048201805491929160808401919061201190613f41565b80601f016020809104026020016040519081016040528092919081815260200182805461203d90613f41565b801561208a5780601f1061205f5761010080835404028352916020019161208a565b820191906000526020600020905b81548152906001019060200180831161206d57829003601f168201915b505050505081526020016005820180546120a390613f41565b80601f01602080910402602001604051908101604052809291908181526020018280546120cf90613f41565b801561211c5780601f106120f15761010080835404028352916020019161211c565b820191906000526020600020905b8154815290600101906020018083116120ff57829003601f168201915b5050505050815260200160068201805480602002602001604051908101604052809291908181526020016000905b828210156121f657838290600052602060002001805461216990613f41565b80601f016020809104026020016040519081016040528092919081815260200182805461219590613f41565b80156121e25780601f106121b7576101008083540402835291602001916121e2565b820191906000526020600020905b8154815290600101906020018083116121c557829003601f168201915b50505050508152602001906001019061214a565b50505050815260200160078201805461220e90613f41565b80601f016020809104026020016040519081016040528092919081815260200182805461223a90613f41565b80156122875780601f1061225c57610100808354040283529160200191612287565b820191906000526020600020905b81548152906001019060200180831161226a57829003601f168201915b505050505081526020016008820180546122a090613f41565b80601f01602080910402602001604051908101604052809291908181526020018280546122cc90613f41565b80156123195780601f106122ee57610100808354040283529160200191612319565b820191906000526020600020905b8154815290600101906020018083116122fc57829003601f168201915b505050505081526020016009820180548060200260200160405190810160405280929190818152602001828054801561237b57602002820191906000526020600020905b81546001600160a01b0316815260019091019060200180831161235d575b50505050508152602001600a8201805480602002602001604051908101604052809291908181526020016000905b828210156124555783829060005260206000200180546123c890613f41565b80601f01602080910402602001604051908101604052809291908181526020018280546123f490613f41565b80156124415780601f1061241657610100808354040283529160200191612441565b820191906000526020600020905b81548152906001019060200180831161242457829003601f168201915b5050505050815260200190600101906123a9565b50505090825250600b919091015460ff161515602090910152825183908390811061248257612482613f7b565b6020908102919091010152600101611fa7565b5092915050565b606060086000838152602001908152602001600020805480602002602001604051908101604052809291908181526020016000905b828210156125ca5760008481526020908190206040805160a0810182526005860290920180546001600160a01b0316835260018101549383019390935260028301549082015260038201805491929160608401919061252f90613f41565b80601f016020809104026020016040519081016040528092919081815260200182805461255b90613f41565b80156125a85780601f1061257d576101008083540402835291602001916125a8565b820191906000526020600020905b81548152906001019060200180831161258b57829003601f168201915b50505050508152602001600482015481525050815260200190600101906124d1565b505050509050919050565b6002600054036125f75760405162461bcd60e51b8152600401610c619061417e565b6002600055600b548190811061261f5760405162461bcd60e51b8152600401610c61906141b5565b6000818152600560205260409020600101546001600160a01b03166126565760405162461bcd60e51b8152600401610c61906141e2565b6000828152600660209081526040808320600590925290912081546001600160a01b031633146126b45760405162461bcd60e51b81526020600482015260096024820152682737ba10313abcb2b960b91b6044820152606401610c61565b600282015460ff16156126fd5760405162461bcd60e51b8152602060048201526011602482015270105b1c9958591e4818dbdb999a5c9b5959607a1b6044820152606401610c61565b60008260010154116127455760405162461bcd60e51b81526020600482015260116024820152704e6f20657363726f7765642066756e647360781b6044820152606401610c61565b816004015442111561278a5760405162461bcd60e51b815260206004820152600e60248201526d115cd8dc9bddc8195e1c1a5c995960921b6044820152606401610c61565b60028281018054600160ff199182168117909255600b840180549091168217905583018054600090915560048054855493850154604051632142170760e11b815230938101939093526001600160a01b03948516602484015260448301529192909116906342842e0e90606401600060405180830381600087803b15801561281157600080fd5b505af1158015612825573d6000803e3d6000fd5b505084546004805460028701546040516331a9108f60e11b8152928301526001600160a01b039283169450919091169150636352211e90602401602060405180830381865afa15801561287c573d6000803e3d6000fd5b505050506040513d601f19601f820116820180604052508101906128a091906143a0565b6001600160a01b0316146128ec5760405162461bcd60e51b8152602060048201526013602482015272139195081d1c985b9cd9995c8819985a5b1959606a1b6044820152606401610c61565b60018201546040516000916001600160a01b03169083908381818185875af1925050503d806000811461293b576040519150601f19603f3d011682016040523d82523d6000602084013e612940565b606091505b50509050806129835760405162461bcd60e51b815260206004820152600f60248201526e151c985b9cd9995c8819985a5b1959608a1b6044820152606401610c61565b60018301805485546001600160a01b039081166001600160a01b031983168117909355600386015460405190815291169190829089907fddd64180d9701c7ede08673ac8106484ff983a472929330d4fbde4e35d65cb069060200160405180910390a4505060016000555050505050565b600086815260056020526040812060018101546001600160a01b03163314612a4a5760405162461bcd60e51b81526020600482015260096024820152682737ba1037bbb732b960b91b6044820152606401610c61565b60048101612a5886826142a3565b5060058101612a6785826142a3565b5060078101612a7687826142a3565b5060088101612a8584826142a3565b50612a94600682016000613621565b60005b8751811015612ae85781600601888281518110612ab657612ab6613f7b565b60209081029190910181015182546001810184556000938452919092200190612adf90826142a3565b50600101612a97565b509698975050505050505050565b60008281526005602052604090206001810154606091906001600160a01b03163314612b505760405162461bcd60e51b81526020600482015260096024820152682737ba1037bbb732b960b91b6044820152606401610c61565b6003018290555060408051808201909152600d81526c141c9a58d9481d5c19185d1959609a1b60208201525b92915050565b600260005403612ba45760405162461bcd60e51b8152600401610c619061417e565b6002600055600b5482908110612bcc5760405162461bcd60e51b8152600401610c61906141b5565b6000818152600560205260409020600101546001600160a01b0316612c035760405162461bcd60e51b8152600401610c61906141e2565b6000838152600560205260409020600b81015460ff1615612c555760405162461bcd60e51b815260206004820152600c60248201526b105b1c9958591e481cdbdb1960a21b6044820152606401610c61565b612c5e8461164b565b341015612ca05760405162461bcd60e51b815260206004820152601060248201526f092dce6eaccccd2c6d2cadce8408aa8960831b6044820152606401610c61565b60008481526006602052604090206001015415612cf35760405162461bcd60e51b8152602060048201526011602482015270105b1c9958591e4819195c1bdcda5d1959607a1b6044820152606401610c61565b6003546040516373bed91960e11b81523360048201526001600160a01b039091169063e77db23290602401602060405180830381865afa158015612d3b573d6000803e3d6000fd5b505050506040513d601f19601f82011682018060405250810190612d5f9190614235565b612da45760405162461bcd60e51b8152602060048201526016602482015275109d5e595c881b9bdd0812d650c8185c1c1c9bdd995960521b6044820152606401610c61565b61012c8310158015612db9575062093a808311155b612dfe5760405162461bcd60e51b81526020600482015260166024820152754475726174696f6e206f7574206f6620626f756e647360501b6044820152606401610c61565b6040518060c00160405280336001600160a01b031681526020013481526020016000151581526020016000151581526020014281526020018442612e429190614222565b9052600085815260066020908152604091829020835181546001600160a01b039091166001600160a01b031990911617815590830151600182015582820151600282018054606086015115156101000261ff00199315159390931661ffff19909116179190911790556080830151600382015560a090920151600490920182905551339186917fc2d4632fde2bef2fec746d249eedfb51e6cb21a8eb596b0a187cdb242e0e69d491612eff91349190918252602082015260400190565b60405180910390a3505060016000555050565b60008080805b600b548110156124955760008181526007602052604090206002015415612f6f5760008181526007602052604081206002810154600190910154612f5c919061416a565b905083811115612f6d578093508192505b505b600101612f18565b600260005403612f995760405162461bcd60e51b8152600401610c619061417e565b6002600055600b5481908110612fc15760405162461bcd60e51b8152600401610c61906141b5565b6000818152600560205260409020600101546001600160a01b0316612ff85760405162461bcd60e51b8152600401610c61906141e2565b600082815260066020526040902060048101544210156130535760405162461bcd60e51b8152602060048201526016602482015275115cd8dc9bddc81b9bdd08195e1c1a5c9959081e595d60521b6044820152606401610c61565b600281015460ff1615801561307257506002810154610100900460ff16155b6130be5760405162461bcd60e51b815260206004820152601860248201527f457363726f7720616c72656164792070726f63657373656400000000000000006044820152606401610c61565b80546001600160a01b031633146131235760405162461bcd60e51b815260206004820152602360248201527f4f6e6c792062757965722063616e20636c61696d206578706972656420657363604482015262726f7760e81b6064820152608401610c61565b60028101805461ff00191661010017905560018101805460009182905582546040519192916001600160a01b039091169083908381818185875af1925050503d806000811461318e576040519150601f19603f3d011682016040523d82523d6000602084013e613193565b606091505b50509050806131d45760405162461bcd60e51b815260206004820152600d60248201526c1499599d5b990819985a5b1959609a1b6044820152606401610c61565b8254604080516001600160a01b0390921682526001602083015286917f8fdd4548a8481406b6e29c0d6f25e27cd72502f79f4adf409468502e7920dabc910160405180910390a250506001600055505050565b60018410158015613239575060058411155b61327a5760405162461bcd60e51b8152602060048201526012602482015271526174696e67206d75737420626520312d3560701b6044820152606401610c61565b60008581526005602090815260408220600981018054600180820183559185528385200180546001600160a01b0319166001600160a01b038716179055600a820180549182018155845291909220016132d48486836143bd565b50600860008781526020019081526020016000206040518060a00160405280846001600160a01b0316815260200188815260200187815260200186868080601f0160208091040260200160405190810160405280939291908181526020018383808284376000920182905250938552505050602091820181905283546001808201865594825290829020835160059092020180546001600160a01b0319166001600160a01b03909216919091178155908201519281019290925560408101516002830155606081015190919060038201906133af90826142a3565b50608091909101516004909101556001600160a01b0382166000908152600960209081526040808320805460018181018355918552838520018a905589845260079092528220018054879290613406908490614222565b9091555050600086815260076020526040812060020180549161342883613f28565b9190505550816001600160a01b0316867f4beb3faed0901f48c8eaa53db80247f723ddeb08676b6badb9ee2f191d1ac2df87878760405161346b9392919061447e565b60405180910390a3600c805490600061348383613f28565b9190505550505050505050565b6000838152600a602090815260408083206001600160a01b038516845290915290205460ff16156134f35760405162461bcd60e51b815260206004820152600d60248201526c105b1c9958591e481b1a5ad959609a1b6044820152606401610c61565b6000838152600a602090815260408083206001600160a01b03851684528252808320805460ff191660011790558583526008909152812080548490811061353c5761353c613f7b565b9060005260206000209060050201905080600401600081548092919061356190613f28565b9190505550816001600160a01b031683857fc58deae63c2d94e1502a392380f59901dc4cd3c3bbc40308b6189decf09671d584600401546040516135a791815260200190565b60405180910390a450505050565b6040518061018001604052806000815260200160006001600160a01b031681526020016000815260200160008152602001606081526020016060815260200160608152602001606081526020016060815260200160608152602001606081526020016000151581525090565b508054600082559060005260206000209081019061363f9190613642565b50565b8082111561365f5760006136568282613663565b50600101613642565b5090565b50805461366f90613f41565b6000825580601f1061367f575050565b601f01602090049060005260206000209081019061363f91905b8082111561365f5760008155600101613699565b6000602082840312156136bf57600080fd5b5035919050565b6001600160a01b038116811461363f57600080fd5b80356136e6816136c6565b919050565b6000602082840312156136fd57600080fd5b8135613708816136c6565b9392505050565b6000815180845260005b8181101561373557602081850181015186830182015201613719565b506000602082860101526020601f19601f83011685010191505092915050565b60008282518085526020808601955060208260051b8401016020860160005b848110156137a257601f1986840301895261379083835161370f565b98840198925090830190600101613774565b5090979650505050505050565b60008151808452602080850194506020840160005b838110156137e95781516001600160a01b0316875295820195908201906001016137c4565b509495945050505050565b600060208083018184528085518083526040925060408601915060408160051b87010184880160005b8381101561394757603f19898403018552815180518452878101516001600160a01b03168885015286810151878501526060808201519085015260808082015161018082870181905291906138748388018261370f565b9250505060a0808301518683038288015261388f838261370f565b9250505060c080830151868303828801526138aa8382613755565b9250505060e080830151868303828801526138c5838261370f565b9250505061010080830151868303828801526138e1838261370f565b9250505061012080830151868303828801526138fd83826137af565b9250505061014080830151868303828801526139198382613755565b925050506101608083015192506139338187018415159052565b50958801959350509086019060010161381d565b509098975050505050505050565b60006101208b8352602060018060a01b038c16818501528a60408501528160608501526139848285018b61370f565b91508382036080850152613998828a61370f565b915083820360a08501528188518084528284019150828160051b850101838b0160005b838110156139e957601f198784030185526139d783835161370f565b948601949250908501906001016139bb565b505086810360c08801526139fd818b61370f565b94505050505082810360e0840152613a15818661370f565b915050613a2761010083018415159052565b9a9950505050505050505050565b801515811461363f57600080fd5b60008060408385031215613a5657600080fd5b823591506020830135613a6881613a35565b809150509250929050565b634e487b7160e01b600052604160045260246000fd5b604051601f8201601f1916810167ffffffffffffffff81118282101715613ab257613ab2613a73565b604052919050565b600082601f830112613acb57600080fd5b813567ffffffffffffffff811115613ae557613ae5613a73565b613af8601f8201601f1916602001613a89565b818152846020838601011115613b0d57600080fd5b816020850160208301376000918101602001919091529392505050565b600082601f830112613b3b57600080fd5b8135602067ffffffffffffffff80831115613b5857613b58613a73565b8260051b613b67838201613a89565b9384528581018301938381019088861115613b8157600080fd5b84880192505b85831015613bbd57823584811115613b9f5760008081fd5b613bad8a87838c0101613aba565b8352509184019190840190613b87565b98975050505050505050565b600080600080600080600060e0888a031215613be457600080fd5b613bed886136db565b965060208801359550604088013567ffffffffffffffff80821115613c1157600080fd5b613c1d8b838c01613aba565b965060608a0135915080821115613c3357600080fd5b613c3f8b838c01613aba565b955060808a0135915080821115613c5557600080fd5b613c618b838c01613b2a565b945060a08a0135915080821115613c7757600080fd5b613c838b838c01613aba565b935060c08a0135915080821115613c9957600080fd5b50613ca68a828b01613aba565b91505092959891949750929550565b600060208083018184528085518083526040925060408601915060408160051b87010184880160005b8381101561394757888303603f19018552815180516001600160a01b031684528781015188850152868101518785015260608082015160a08287018190529190613d2a8388018261370f565b6080948501519790940196909652505094870194925090860190600101613cde565b600080600080600080600060e0888a031215613d6757600080fd5b613d70886136db565b965060208801359550604088013567ffffffffffffffff80821115613d9457600080fd5b613da08b838c01613b2a565b965060608a0135915080821115613db657600080fd5b613dc28b838c01613aba565b955060808a0135915080821115613dd857600080fd5b613c618b838c01613aba565b60008060408385031215613df757600080fd5b50508035926020909101359150565b602081526000613708602083018461370f565b60008060408385031215613e2c57600080fd5b823591506020830135613a68816136c6565b600080600080600060808688031215613e5657600080fd5b8535945060208601359350604086013567ffffffffffffffff80821115613e7c57600080fd5b818801915088601f830112613e9057600080fd5b813581811115613e9f57600080fd5b896020828501011115613eb157600080fd5b6020830195508094505050506060860135613ecb816136c6565b809150509295509295909350565b600080600060608486031215613eee57600080fd5b83359250602084013591506040840135613f07816136c6565b809150509250925092565b634e487b7160e01b600052601160045260246000fd5b600060018201613f3a57613f3a613f12565b5060010190565b600181811c90821680613f5557607f821691505b602082108103613f7557634e487b7160e01b600052602260045260246000fd5b50919050565b634e487b7160e01b600052603260045260246000fd5b805169ffffffffffffffffffff811681146136e657600080fd5b600080600080600060a08688031215613fc357600080fd5b613fcc86613f91565b9450602086015193506040860151925060608601519150613fef60808701613f91565b90509295509295909350565b60006020828403121561400d57600080fd5b815160ff8116811461370857600080fd5b81810381811115612b7c57612b7c613f12565b60ff8281168282160390811115612b7c57612b7c613f12565b600181815b8085111561408557816000190482111561406b5761406b613f12565b8085161561407857918102915b93841c939080029061404f565b509250929050565b60008261409c57506001612b7c565b816140a957506000612b7c565b81600181146140bf57600281146140c9576140e5565b6001915050612b7c565b60ff8411156140da576140da613f12565b50506001821b612b7c565b5060208310610133831016604e8410600b8410161715614108575081810a612b7c565b614112838361404a565b806000190482111561412657614126613f12565b029392505050565b600061370860ff84168361408d565b8082028115828204841417612b7c57612b7c613f12565b634e487b7160e01b600052601260045260246000fd5b60008261417957614179614154565b500490565b6020808252601f908201527f5265656e7472616e637947756172643a207265656e7472616e742063616c6c00604082015260600190565b602080825260139082015272125b9d985b1a59081c1c9bdc195c9d1e481a59606a1b604082015260600190565b602080825260129082015271141c9bdc195c9d1e481b9bdd08199bdd5b9960721b604082015260600190565b60008261421d5761421d614154565b500690565b80820180821115612b7c57612b7c613f12565b60006020828403121561424757600080fd5b815161370881613a35565b601f82111561429e576000816000526020600020601f850160051c8101602086101561427b5750805b601f850160051c820191505b8181101561429a57828155600101614287565b5050505b505050565b815167ffffffffffffffff8111156142bd576142bd613a73565b6142d1816142cb8454613f41565b84614252565b602080601f83116001811461430657600084156142ee5750858301515b600019600386901b1c1916600185901b17855561429a565b600085815260208120601f198616915b8281101561433557888601518255948401946001909101908401614316565b50858210156143535787850151600019600388901b60f8161c191681555b5050505050600190811b01905550565b6001600160a01b0383168152604060208201819052600090611bfb9083018461370f565b60006020828403121561439957600080fd5b5051919050565b6000602082840312156143b257600080fd5b8151613708816136c6565b67ffffffffffffffff8311156143d5576143d5613a73565b6143e9836143e38354613f41565b83614252565b6000601f84116001811461441d57600085156144055750838201355b600019600387901b1c1916600186901b178355614477565b600083815260209020601f19861690835b8281101561444e578685013582556020948501946001909201910161442e565b508682101561446b5760001960f88860031b161c19848701351681555b505060018560011b0183555b5050505050565b83815260406020820152816040820152818360608301376000818301606090810191909152601f909201601f191601019291505056fea26469706673582212201ce34eaefdd9393f6802882dea5e2e8dd97abd956c83b3ad891f67aa1f4e66a964736f6c6343000818003360806040523480156200001157600080fd5b506040518060400160405280601481526020017f5265616c204573746174652050726f706572747900000000000000000000000081525060405180604001604052806004815260200163050524f560e41b815250816000908162000076919062000135565b50600162000085828262000135565b50505062000201565b634e487b7160e01b600052604160045260246000fd5b600181811c90821680620000b957607f821691505b602082108103620000da57634e487b7160e01b600052602260045260246000fd5b50919050565b601f82111562000130576000816000526020600020601f850160051c810160208610156200010b5750805b601f850160051c820191505b818110156200012c5782815560010162000117565b5050505b505050565b81516001600160401b038111156200015157620001516200008e565b6200016981620001628454620000a4565b84620000e0565b602080601f831160018114620001a15760008415620001885750858301515b600019600386901b1c1916600185901b1785556200012c565b600085815260208120601f198616915b82811015620001d257888601518255948401946001909101908401620001b1565b5085821015620001f15787850151600019600388901b60f8161c191681555b5050505050600190811b01905550565b61183680620002116000396000f3fe608060405234801561001057600080fd5b506004361061010b5760003560e01c80636352211e116100a2578063a22cb46511610071578063a22cb4651461021e578063b88d4fde14610231578063c87b56dd14610244578063e985e9c514610257578063fca3b5aa1461029357600080fd5b80636352211e146101e757806370a08231146101fa57806375794a3c1461020d57806395d89b411461021657600080fd5b8063095ea7b3116100de578063095ea7b31461018b578063177dc17f146101a057806323b872dd146101c157806342842e0e146101d457600080fd5b806301ffc9a71461011057806306fdde0314610138578063075461721461014d578063081812fc14610178575b600080fd5b61012361011e3660046111d2565b6102a6565b60405190151581526020015b60405180910390f35b6101406102f8565b60405161012f919061123f565b600854610160906001600160a01b031681565b6040516001600160a01b03909116815260200161012f565b610160610186366004611252565b61038a565b61019e610199366004611287565b610417565b005b6101b36101ae36600461133d565b61052c565b60405190815260200161012f565b61019e6101cf36600461139f565b6105aa565b61019e6101e236600461139f565b6105db565b6101606101f5366004611252565b6105f6565b6101b36102083660046113db565b61066d565b6101b360075481565b6101406106f4565b61019e61022c3660046113f6565b610703565b61019e61023f366004611432565b6107c7565b610140610252366004611252565b6107ff565b6101236102653660046114ae565b6001600160a01b03918216600090815260056020908152604080832093909416825291909152205460ff1690565b61019e6102a13660046113db565b610975565b60006001600160e01b031982166380ac58cd60e01b14806102d757506001600160e01b03198216635b5e139f60e01b145b806102f257506301ffc9a760e01b6001600160e01b03198316145b92915050565b606060008054610307906114e1565b80601f0160208091040260200160405190810160405280929190818152602001828054610333906114e1565b80156103805780601f1061035557610100808354040283529160200191610380565b820191906000526020600020905b81548152906001019060200180831161036357829003601f168201915b5050505050905090565b6000610395826109e5565b6103fb5760405162461bcd60e51b815260206004820152602c60248201527f4552433732313a20617070726f76656420717565727920666f72206e6f6e657860448201526b34b9ba32b73a103a37b5b2b760a11b60648201526084015b60405180910390fd5b506000908152600460205260409020546001600160a01b031690565b6000610422826105f6565b9050806001600160a01b0316836001600160a01b03160361048f5760405162461bcd60e51b815260206004820152602160248201527f4552433732313a20617070726f76616c20746f2063757272656e74206f776e656044820152603960f91b60648201526084016103f2565b336001600160a01b03821614806104ab57506104ab8133610265565b61051d5760405162461bcd60e51b815260206004820152603860248201527f4552433732313a20617070726f76652063616c6c6572206973206e6f74206f7760448201527f6e6572206e6f7220617070726f76656420666f7220616c6c000000000000000060648201526084016103f2565b6105278383610a02565b505050565b6008546000906001600160a01b031633146105775760405162461bcd60e51b815260206004820152600b60248201526a139bdd08185b1b1bddd95960aa1b60448201526064016103f2565b600060076000815461058890611531565b918290555090506105998482610a70565b6105a38184610ba3565b9392505050565b6105b43382610c27565b6105d05760405162461bcd60e51b81526004016103f29061154a565b610527838383610d0d565b610527838383604051806020016040528060008152506107c7565b6000818152600260205260408120546001600160a01b0316806102f25760405162461bcd60e51b815260206004820152602960248201527f4552433732313a206f776e657220717565727920666f72206e6f6e657869737460448201526832b73a103a37b5b2b760b91b60648201526084016103f2565b60006001600160a01b0382166106d85760405162461bcd60e51b815260206004820152602a60248201527f4552433732313a2062616c616e636520717565727920666f7220746865207a65604482015269726f206164647265737360b01b60648201526084016103f2565b506001600160a01b031660009081526003602052604090205490565b606060018054610307906114e1565b336001600160a01b0383160361075b5760405162461bcd60e51b815260206004820152601960248201527f4552433732313a20617070726f766520746f2063616c6c65720000000000000060448201526064016103f2565b3360008181526005602090815260408083206001600160a01b03871680855290835292819020805460ff191686151590811790915590519081529192917f17307eab39ab6107e8899845ad3d59bd9653f200f220920489ca2b5937696c31910160405180910390a35050565b6107d13383610c27565b6107ed5760405162461bcd60e51b81526004016103f29061154a565b6107f984848484610ead565b50505050565b606061080a826109e5565b6108705760405162461bcd60e51b815260206004820152603160248201527f45524337323155524953746f726167653a2055524920717565727920666f72206044820152703737b732bc34b9ba32b73a103a37b5b2b760791b60648201526084016103f2565b60008281526006602052604081208054610889906114e1565b80601f01602080910402602001604051908101604052809291908181526020018280546108b5906114e1565b80156109025780601f106108d757610100808354040283529160200191610902565b820191906000526020600020905b8154815290600101906020018083116108e557829003601f168201915b50505050509050600061092060408051602081019091526000815290565b90508051600003610932575092915050565b81511561096457808260405160200161094c92919061159b565b60405160208183030381529060405292505050919050565b61096d84610ee0565b949350505050565b6008546001600160a01b0316156109c35760405162461bcd60e51b8152602060048201526012602482015271135a5b9d195c88185b1c9958591e481cd95d60721b60448201526064016103f2565b600880546001600160a01b0319166001600160a01b0392909216919091179055565b6000908152600260205260409020546001600160a01b0316151590565b600081815260046020526040902080546001600160a01b0319166001600160a01b0384169081179091558190610a37826105f6565b6001600160a01b03167f8c5be1e5ebec7d5bd14f71427d1e84f3dd0314c0f7b2291e5b200ac8c7c3b92560405160405180910390a45050565b6001600160a01b038216610ac65760405162461bcd60e51b815260206004820181905260248201527f4552433732313a206d696e7420746f20746865207a65726f206164647265737360448201526064016103f2565b610acf816109e5565b15610b1c5760405162461bcd60e51b815260206004820152601c60248201527f4552433732313a20746f6b656e20616c7265616479206d696e7465640000000060448201526064016103f2565b6001600160a01b0382166000908152600360205260408120805460019290610b459084906115ca565b909155505060008181526002602052604080822080546001600160a01b0319166001600160a01b03861690811790915590518392907fddf252ad1be2c89b69c2b068fc378daa952ba7f163c4a11628f55a4df523b3ef908290a45050565b610bac826109e5565b610c0f5760405162461bcd60e51b815260206004820152602e60248201527f45524337323155524953746f726167653a2055524920736574206f66206e6f6e60448201526d32bc34b9ba32b73a103a37b5b2b760911b60648201526084016103f2565b6000828152600660205260409020610527828261162d565b6000610c32826109e5565b610c935760405162461bcd60e51b815260206004820152602c60248201527f4552433732313a206f70657261746f7220717565727920666f72206e6f6e657860448201526b34b9ba32b73a103a37b5b2b760a11b60648201526084016103f2565b6000610c9e836105f6565b9050806001600160a01b0316846001600160a01b03161480610cd95750836001600160a01b0316610cce8461038a565b6001600160a01b0316145b8061096d57506001600160a01b0380821660009081526005602090815260408083209388168352929052205460ff1661096d565b826001600160a01b0316610d20826105f6565b6001600160a01b031614610d885760405162461bcd60e51b815260206004820152602960248201527f4552433732313a207472616e73666572206f6620746f6b656e2074686174206960448201526839903737ba1037bbb760b91b60648201526084016103f2565b6001600160a01b038216610dea5760405162461bcd60e51b8152602060048201526024808201527f4552433732313a207472616e7366657220746f20746865207a65726f206164646044820152637265737360e01b60648201526084016103f2565b610df5600082610a02565b6001600160a01b0383166000908152600360205260408120805460019290610e1e9084906116ed565b90915550506001600160a01b0382166000908152600360205260408120805460019290610e4c9084906115ca565b909155505060008181526002602052604080822080546001600160a01b0319166001600160a01b0386811691821790925591518493918716917fddf252ad1be2c89b69c2b068fc378daa952ba7f163c4a11628f55a4df523b3ef91a4505050565b610eb8848484610d0d565b610ec484848484610fb7565b6107f95760405162461bcd60e51b81526004016103f290611700565b6060610eeb826109e5565b610f4f5760405162461bcd60e51b815260206004820152602f60248201527f4552433732314d657461646174613a2055524920717565727920666f72206e6f60448201526e3732bc34b9ba32b73a103a37b5b2b760891b60648201526084016103f2565b6000610f6660408051602081019091526000815290565b90506000815111610f8657604051806020016040528060008152506105a3565b80610f90846110b8565b604051602001610fa192919061159b565b6040516020818303038152906040529392505050565b60006001600160a01b0384163b156110ad57604051630a85bd0160e11b81526001600160a01b0385169063150b7a0290610ffb903390899088908890600401611752565b6020604051808303816000875af1925050508015611036575060408051601f3d908101601f191682019092526110339181019061178f565b60015b611093573d808015611064576040519150601f19603f3d011682016040523d82523d6000602084013e611069565b606091505b50805160000361108b5760405162461bcd60e51b81526004016103f290611700565b805181602001fd5b6001600160e01b031916630a85bd0160e11b14905061096d565b506001949350505050565b6060816000036110df5750506040805180820190915260018152600360fc1b602082015290565b8160005b811561110957806110f381611531565b91506111029050600a836117c2565b91506110e3565b60008167ffffffffffffffff811115611124576111246112b1565b6040519080825280601f01601f19166020018201604052801561114e576020820181803683370190505b5090505b841561096d576111636001836116ed565b9150611170600a866117d6565b61117b9060306115ca565b60f81b818381518110611190576111906117ea565b60200101906001600160f81b031916908160001a9053506111b2600a866117c2565b9450611152565b6001600160e01b0319811681146111cf57600080fd5b50565b6000602082840312156111e457600080fd5b81356105a3816111b9565b60005b8381101561120a5781810151838201526020016111f2565b50506000910152565b6000815180845261122b8160208601602086016111ef565b601f01601f19169290920160200192915050565b6020815260006105a36020830184611213565b60006020828403121561126457600080fd5b5035919050565b80356001600160a01b038116811461128257600080fd5b919050565b6000806040838503121561129a57600080fd5b6112a38361126b565b946020939093013593505050565b634e487b7160e01b600052604160045260246000fd5b600067ffffffffffffffff808411156112e2576112e26112b1565b604051601f8501601f19908116603f0116810190828211818310171561130a5761130a6112b1565b8160405280935085815286868601111561132357600080fd5b858560208301376000602087830101525050509392505050565b6000806040838503121561135057600080fd5b6113598361126b565b9150602083013567ffffffffffffffff81111561137557600080fd5b8301601f8101851361138657600080fd5b611395858235602084016112c7565b9150509250929050565b6000806000606084860312156113b457600080fd5b6113bd8461126b565b92506113cb6020850161126b565b9150604084013590509250925092565b6000602082840312156113ed57600080fd5b6105a38261126b565b6000806040838503121561140957600080fd5b6114128361126b565b91506020830135801515811461142757600080fd5b809150509250929050565b6000806000806080858703121561144857600080fd5b6114518561126b565b935061145f6020860161126b565b925060408501359150606085013567ffffffffffffffff81111561148257600080fd5b8501601f8101871361149357600080fd5b6114a2878235602084016112c7565b91505092959194509250565b600080604083850312156114c157600080fd5b6114ca8361126b565b91506114d86020840161126b565b90509250929050565b600181811c908216806114f557607f821691505b60208210810361151557634e487b7160e01b600052602260045260246000fd5b50919050565b634e487b7160e01b600052601160045260246000fd5b6000600182016115435761154361151b565b5060010190565b60208082526031908201527f4552433732313a207472616e736665722063616c6c6572206973206e6f74206f6040820152701ddb995c881b9bdc88185c1c1c9bdd9959607a1b606082015260800190565b600083516115ad8184602088016111ef565b8351908301906115c18183602088016111ef565b01949350505050565b808201808211156102f2576102f261151b565b601f821115610527576000816000526020600020601f850160051c810160208610156116065750805b601f850160051c820191505b8181101561162557828155600101611612565b505050505050565b815167ffffffffffffffff811115611647576116476112b1565b61165b8161165584546114e1565b846115dd565b602080601f83116001811461169057600084156116785750858301515b600019600386901b1c1916600185901b178555611625565b600085815260208120601f198616915b828110156116bf578886015182559484019460019091019084016116a0565b50858210156116dd5787850151600019600388901b60f8161c191681555b5050505050600190811b01905550565b818103818111156102f2576102f261151b565b60208082526032908201527f4552433732313a207472616e7366657220746f206e6f6e20455243373231526560408201527131b2b4bb32b91034b6b83632b6b2b73a32b960711b606082015260800190565b6001600160a01b038581168252841660208201526040810183905260806060820181905260009061178590830184611213565b9695505050505050565b6000602082840312156117a157600080fd5b81516105a3816111b9565b634e487b7160e01b600052601260045260246000fd5b6000826117d1576117d16117ac565b500490565b6000826117e5576117e56117ac565b500690565b634e487b7160e01b600052603260045260246000fdfea2646970667358221220c2cccf50301dd09d807780707d620174d61445338ac665e39ad26ea29c914ecf64736f6c63430008180033",
  "linkReferences": {},
  "deployedLinkReferences": {}
}