{
  "_format": "hh-sol-artifact-1",
  "contractName": "KYCVerifier",
  "sourceName": "contracts/KYcVerifier.sol",
  "abi": [
    {
      "inputs": [],
      "stateMutability": "nonpayable",
      "type": "constructor"
    },
    {
      "anonymous": false,
      "inputs": [
        {
          "indexed": true,
          "internalType": "address",
          "name": "user",
          "type": "address"
        },
        {
          "indexed": false,
          "internalType": "bool",
          "name": "approved",
          "type": "bool"
        }
      ],
      "name": "KYCStatusChanged",
      "type": "event"
    },
    {
      "inputs": [],
      "name": "admin",
      "outputs": [
        {
          "internalType": "address",
          "name": "",
          "type": "address"
        }
      ],
      "stateMutability": "view",
      "type": "function"
    },
    {
      "inputs": [
        {
          "internalType": "address",
          "name": "user",
          "type": "address"
        }
      ],
      "name": "isKYCApproved",
      "outputs": [
        {
          "internalType": "bool",
          "name": "",
          "type": "bool"
        }
      ],
      "stateMutability": "view",
      "type": "function"
    },
    {
      "inputs": [
        {
          "internalType": "address",
          "name": "user",
          "type": "address"
        },
        {
          "internalType": "bool",
          "name": "status",
          "type": "bool"
        }
      ],
      "name": "setKYCApproved",
      "outputs": [],
      "stateMutability": "nonpayable",
      "type": "function"
    }
  ],
  "bytecode": "0x608060405234801561001057600080fd5b50600080546001600160a01b03191633179055610225806100326000396000f3fe608060405234801561001057600080fd5b50600436106100415760003560e01c80636e72a6bc14610046578063e77db2321461005b578063f851a4401461009c575b600080fd5b610059610054366004610191565b6100c7565b005b6100876100693660046101cd565b6001600160a01b031660009081526001602052604090205460ff1690565b60405190151581526020015b60405180910390f35b6000546100af906001600160a01b031681565b6040516001600160a01b039091168152602001610093565b6000546001600160a01b031633146101165760405162461bcd60e51b815260206004820152600e60248201526d139bdd08185d5d1a1bdc9a5e995960921b604482015260640160405180910390fd5b6001600160a01b038216600081815260016020908152604091829020805460ff191685151590811790915591519182527f3a620c3544f4661f38b303e51ff3c4cc552da5a80ec55d4e3875af78775e1a82910160405180910390a25050565b80356001600160a01b038116811461018c57600080fd5b919050565b600080604083850312156101a457600080fd5b6101ad83610175565b9150602083013580151581146101c257600080fd5b809150509250929050565b6000602082840312156101df57600080fd5b6101e882610175565b939250505056fea2646970667358221220eb32e3c7ad0424c5e05a8acafab54bf33aac647f4183baf7fc0d4f14997d14f864736f6c63430008180033",
  "linkReferences": {},
  "deployedLinkReferences": {}
}