{
  "_format": "hh-sol-artifact-1",
  "contractName": "RealEstate",
  "sourceName": "contracts/RealEstate.sol",
  "abi": [
    {
      "inputs": [],
      "stateMutability": "nonpayable",
      "type": "constructor"
    },
    {
      "anonymous": false,
      "inputs": [
        {
          "indexed": true,
          "internalType": "uint256",
          "name": "id",
          "type": "uint256"
        },
        {
          "indexed": false,
          "internalType": "address",
          "name": "recipient",
          "type": "address"
        },
        {
          "indexed": false,
          "internalType": "bool",
          "name": "refunded",
          "type": "bool"
        }
      ],
      "name": "DisputeResolved",
      "type": "event"
    },
    {
      "anonymous": false,
      "inputs": [
        {
          "indexed": true,
          "internalType": "uint256",
          "name": "id",
          "type": "uint256"
        },
        {
          "indexed": true,
          "internalType": "address",
          "name": "buyer",
          "type": "address"
        },
        {
          "indexed": false,
          "internalType": "uint256",
          "name": "amount",
          "type": "uint256"
        }
      ],
      "name": "PaymentDeposited",
      "type": "event"
    },
    {
      "anonymous": false,
      "inputs": [
        {
          "indexed": true,
          "internalType": "uint256",
          "name": "id",
          "type": "uint256"
        },
        {
          "indexed": true,
          "internalType": "address",
          "name": "owner",
          "type": "address"
        },
        {
          "indexed": false,
          "internalType": "uint256",
          "name": "price",
          "type": "uint256"
        }
      ],
      "name": "PropertyListed",
      "type": "event"
    },
    {
      "anonymous": false,
      "inputs": [
        {
          "indexed": true,
          "internalType": "uint256",
          "name": "id",
          "type": "uint256"
        },
        {
          "indexed": true,
          "internalType": "address",
          "name": "oldOwner",
          "type": "address"
        },
        {
          "indexed": true,
          "internalType": "address",
          "name": "newOwner",
          "type": "address"
        },
        {
          "indexed": false,
          "internalType": "uint256",
          "name": "price",
          "type": "uint256"
        }
      ],
      "name": "PropertySold",
      "type": "event"
    },
    {
      "anonymous": false,
      "inputs": [
        {
          "indexed": true,
          "internalType": "uint256",
          "name": "productId",
          "type": "uint256"
        },
        {
          "indexed": true,
          "internalType": "address",
          "name": "reviewer",
          "type": "address"
        },
        {
          "indexed": false,
          "internalType": "uint256",
          "name": "rating",
          "type": "uint256"
        },
        {
          "indexed": false,
          "internalType": "string",
          "name": "comment",
          "type": "string"
        }
      ],
      "name": "ReviewAdded",
      "type": "event"
    },
    {
      "anonymous": false,
      "inputs": [
        {
          "indexed": true,
          "internalType": "uint256",
          "name": "productId",
          "type": "uint256"
        },
        {
          "indexed": true,
          "internalType": "uint256",
          "name": "reviewIndex",
          "type": "uint256"
        },
        {
          "indexed": true,
          "internalType": "address",
          "name": "liker",
          "type": "address"
        },
        {
          "indexed": false,
          "internalType": "uint256",
          "name": "likes",
          "type": "uint256"
        }
      ],
      "name": "ReviewLiked",
      "type": "event"
    },
    {
      "inputs": [
        {
          "internalType": "uint256",
          "name": "productId",
          "type": "uint256"
        },
        {
          "internalType": "uint256",
          "name": "rating",
          "type": "uint256"
        },
        {
          "internalType": "string",
          "name": "comment",
          "type": "string"
        },
        {
          "internalType": "address",
          "name": "user",
          "type": "address"
        }
      ],
      "name": "addReview",
      "outputs": [],
      "stateMutability": "nonpayable",
      "type": "function"
    },
    {
      "inputs": [],
      "name": "admin",
      "outputs": [
        {
          "internalType": "address",
          "name": "",
          "type": "address"
        }
      ],
      "stateMutability": "view",
      "type": "function"
    },
    {
      "inputs": [
        {
          "internalType": "uint256",
          "name": "id",
          "type": "uint256"
        }
      ],
      "name": "confirmPurchase",
      "outputs": [],
      "stateMutability": "nonpayable",
      "type": "function"
    },
    {
      "inputs": [
        {
          "internalType": "uint256",
          "name": "id",
          "type": "uint256"
        }
      ],
      "name": "depositPayment",
      "outputs": [],
      "stateMutability": "payable",
      "type": "function"
    },
    {
      "inputs": [
        {
          "internalType": "uint256",
          "name": "",
          "type": "uint256"
        }
      ],
      "name": "escrows",
      "outputs": [
        {
          "internalType": "address",
          "name": "buyer",
          "type": "address"
        },
        {
          "internalType": "uint256",
          "name": "amount",
          "type": "uint256"
        },
        {
          "internalType": "bool",
          "name": "confirmed",
          "type": "bool"
        },
        {
          "internalType": "bool",
          "name": "refunded",
          "type": "bool"
        }
      ],
      "stateMutability": "view",
      "type": "function"
    },
    {
      "inputs": [],
      "name": "getAllProperties",
      "outputs": [
        {
          "components": [
            {
              "internalType": "uint256",
              "name": "productID",
              "type": "uint256"
            },
            {
              "internalType": "address payable",
              "name": "owner",
              "type": "address"
            },
            {
              "internalType": "uint256",
              "name": "price",
              "type": "uint256"
            },
            {
              "internalType": "string",
              "name": "propertyTitle",
              "type": "string"
            },
            {
              "internalType": "string",
              "name": "category",
              "type": "string"
            },
            {
              "internalType": "string[]",
              "name": "images",
              "type": "string[]"
            },
            {
              "internalType": "string",
              "name": "propertyAddress",
              "type": "string"
            },
            {
              "internalType": "string",
              "name": "description",
              "type": "string"
            },
            {
              "internalType": "address[]",
              "name": "reviewers",
              "type": "address[]"
            },
            {
              "internalType": "string[]",
              "name": "reviews",
              "type": "string[]"
            },
            {
              "internalType": "bool",
              "name": "sold",
              "type": "bool"
            }
          ],
          "internalType": "struct RealEstate.Property[]",
          "name": "",
          "type": "tuple[]"
        }
      ],
      "stateMutability": "view",
      "type": "function"
    },
    {
      "inputs": [],
      "name": "getHighestRatedProduct",
      "outputs": [
        {
          "internalType": "uint256",
          "name": "",
          "type": "uint256"
        }
      ],
      "stateMutability": "view",
      "type": "function"
    },
    {
      "inputs": [],
      "name": "getLatestEthPrice",
      "outputs": [
        {
          "internalType": "uint256",
          "name": "",
          "type": "uint256"
        }
      ],
      "stateMutability": "view",
      "type": "function"
    },
    {
      "inputs": [
        {
          "internalType": "uint256",
          "name": "productId",
          "type": "uint256"
        }
      ],
      "name": "getProductReview",
      "outputs": [
        {
          "components": [
            {
              "internalType": "address",
              "name": "reviewer",
              "type": "address"
            },
            {
              "internalType": "uint256",
              "name": "productId",
              "type": "uint256"
            },
            {
              "internalType": "uint256",
              "name": "rating",
              "type": "uint256"
            },
            {
              "internalType": "string",
              "name": "comment",
              "type": "string"
            },
            {
              "internalType": "uint256",
              "name": "likes",
              "type": "uint256"
            }
          ],
          "internalType": "struct RealEstate.Review[]",
          "name": "",
          "type": "tuple[]"
        }
      ],
      "stateMutability": "view",
      "type": "function"
    },
    {
      "inputs": [
        {
          "internalType": "uint256",
          "name": "id",
          "type": "uint256"
        }
      ],
      "name": "getProperty",
      "outputs": [
        {
          "internalType": "uint256",
          "name": "",
          "type": "uint256"
        },
        {
          "internalType": "address",
          "name": "",
          "type": "address"
        },
        {
          "internalType": "uint256",
          "name": "",
          "type": "uint256"
        },
        {
          "internalType": "string",
          "name": "",
          "type": "string"
        },
        {
          "internalType": "string",
          "name": "",
          "type": "string"
        },
        {
          "internalType": "string[]",
          "name": "",
          "type": "string[]"
        },
        {
          "internalType": "string",
          "name": "",
          "type": "string"
        },
        {
          "internalType": "string",
          "name": "",
          "type": "string"
        },
        {
          "internalType": "bool",
          "name": "",
          "type": "bool"
        }
      ],
      "stateMutability": "view",
      "type": "function"
    },
    {
      "inputs": [
        {
          "internalType": "uint256",
          "name": "propertyId",
          "type": "uint256"
        }
      ],
      "name": "getRequiredEth",
      "outputs": [
        {
          "internalType": "uint256",
          "name": "",
          "type": "uint256"
        }
      ],
      "stateMutability": "view",
      "type": "function"
    },
    {
      "inputs": [
        {
          "internalType": "address",
          "name": "user",
          "type": "address"
        }
      ],
      "name": "getUserProperties",
      "outputs": [
        {
          "components": [
            {
              "internalType": "uint256",
              "name": "productID",
              "type": "uint256"
            },
            {
              "internalType": "address payable",
              "name": "owner",
              "type": "address"
            },
            {
              "internalType": "uint256",
              "name": "price",
              "type": "uint256"
            },
            {
              "internalType": "string",
              "name": "propertyTitle",
              "type": "string"
            },
            {
              "internalType": "string",
              "name": "category",
              "type": "string"
            },
            {
              "internalType": "string[]",
              "name": "images",
              "type": "string[]"
            },
            {
              "internalType": "string",
              "name": "propertyAddress",
              "type": "string"
            },
            {
              "internalType": "string",
              "name": "description",
              "type": "string"
            },
            {
              "internalType": "address[]",
              "name": "reviewers",
              "type": "address[]"
            },
            {
              "internalType": "string[]",
              "name": "reviews",
              "type": "string[]"
            },
            {
              "internalType": "bool",
              "name": "sold",
              "type": "bool"
            }
          ],
          "internalType": "struct RealEstate.Property[]",
          "name": "",
          "type": "tuple[]"
        }
      ],
      "stateMutability": "view",
      "type": "function"
    },
    {
      "inputs": [
        {
          "internalType": "address",
          "name": "user",
          "type": "address"
        }
      ],
      "name": "getUserReviews",
      "outputs": [
        {
          "components": [
            {
              "internalType": "address",
              "name": "reviewer",
              "type": "address"
            },
            {
              "internalType": "uint256",
              "name": "productId",
              "type": "uint256"
            },
            {
              "internalType": "uint256",
              "name": "rating",
              "type": "uint256"
            },
            {
              "internalType": "string",
              "name": "comment",
              "type": "string"
            },
            {
              "internalType": "uint256",
              "name": "likes",
              "type": "uint256"
            }
          ],
          "internalType": "struct RealEstate.Review[]",
          "name": "",
          "type": "tuple[]"
        }
      ],
      "stateMutability": "view",
      "type": "function"
    },
    {
      "inputs": [],
      "name": "kycVerifier",
      "outputs": [
        {
          "internalType": "contract IKYCVerifier",
          "name": "",
          "type": "address"
        }
      ],
      "stateMutability": "view",
      "type": "function"
    },
    {
      "inputs": [
        {
          "internalType": "uint256",
          "name": "productId",
          "type": "uint256"
        },
        {
          "internalType": "uint256",
          "name": "reviewIndex",
          "type": "uint256"
        },
        {
          "internalType": "address",
          "name": "user",
          "type": "address"
        }
      ],
      "name": "likeReview",
      "outputs": [],
      "stateMutability": "nonpayable",
      "type": "function"
    },
    {
      "inputs": [
        {
          "internalType": "address payable",
          "name": "owner",
          "type": "address"
        },
        {
          "internalType": "uint256",
          "name": "price",
          "type": "uint256"
        },
        {
          "internalType": "string",
          "name": "_propertyTitle",
          "type": "string"
        },
        {
          "internalType": "string",
          "name": "_category",
          "type": "string"
        },
        {
          "internalType": "string[]",
          "name": "_images",
          "type": "string[]"
        },
        {
          "internalType": "string",
          "name": "_propertyAddress",
          "type": "string"
        },
        {
          "internalType": "string",
          "name": "_description",
          "type": "string"
        }
      ],
      "name": "listProperty",
      "outputs": [
        {
          "internalType": "uint256",
          "name": "",
          "type": "uint256"
        }
      ],
      "stateMutability": "nonpayable",
      "type": "function"
    },
    {
      "inputs": [],
      "name": "propertyIndex",
      "outputs": [
        {
          "internalType": "uint256",
          "name": "",
          "type": "uint256"
        }
      ],
      "stateMutability": "view",
      "type": "function"
    },
    {
      "inputs": [
        {
          "internalType": "uint256",
          "name": "id",
          "type": "uint256"
        },
        {
          "internalType": "bool",
          "name": "refundBuyer",
          "type": "bool"
        }
      ],
      "name": "resolveDispute",
      "outputs": [],
      "stateMutability": "nonpayable",
      "type": "function"
    },
    {
      "inputs": [],
      "name": "reviewsCounter",
      "outputs": [
        {
          "internalType": "uint256",
          "name": "",
          "type": "uint256"
        }
      ],
      "stateMutability": "view",
      "type": "function"
    },
    {
      "inputs": [
        {
          "internalType": "address",
          "name": "owner",
          "type": "address"
        },
        {
          "internalType": "uint256",
          "name": "productId",
          "type": "uint256"
        },
        {
          "internalType": "uint256",
          "name": "price",
          "type": "uint256"
        }
      ],
      "name": "updatePrice",
      "outputs": [
        {
          "internalType": "string",
          "name": "",
          "type": "string"
        }
      ],
      "stateMutability": "nonpayable",
      "type": "function"
    },
    {
      "inputs": [
        {
          "internalType": "address",
          "name": "owner",
          "type": "address"
        },
        {
          "internalType": "uint256",
          "name": "productId",
          "type": "uint256"
        },
        {
          "internalType": "string[]",
          "name": "_images",
          "type": "string[]"
        },
        {
          "internalType": "string",
          "name": "_propertyAddress",
          "type": "string"
        },
        {
          "internalType": "string",
          "name": "_propertyTitle",
          "type": "string"
        },
        {
          "internalType": "string",
          "name": "_category",
          "type": "string"
        },
        {
          "internalType": "string",
          "name": "_description",
          "type": "string"
        }
      ],
      "name": "updateProperty",
      "outputs": [
        {
          "internalType": "uint256",
          "name": "",
          "type": "uint256"
        }
      ],
      "stateMutability": "nonpayable",
      "type": "function"
    }
  ],
  "bytecode": "0x608060405234801561001057600080fd5b50600080546001600160a01b0319908116331790915560018054821673022f9dcc73c5fb43f2b4ef2ef9ad3edd1d853946179055600280549091167373be0078b59fffe2ce9f0007496258d11ee746de179055613990806100726000396000f3fe60806040526004361061012a5760003560e01c80634d24e902116100ab578063b937e7cc1161006f578063b937e7cc1461037f578063ca6445af146103b7578063dc035e6d146103d7578063e57d6fb7146103f7578063f56720b514610424578063f851a4401461043a57600080fd5b80634d24e902146103015780635f28761b146103215780636b749c4714610341578063844ce56214610354578063a3007b1f1461036a57600080fd5b806334b25ee2116100f257806334b25ee21461026a57806334da849b1461028c578063372d892d146102ac5780633d51402c146102cc5780633fca0367146102e157600080fd5b8063012f52ee1461012f578063060a3e61146101b857806318d0e8b2146101e557806330c0b9ec1461021257806332665ffb14610235575b600080fd5b34801561013b57600080fd5b5061018161014a366004612d82565b6004602052600090815260409020805460018201546002909201546001600160a01b03909116919060ff8082169161010090041684565b604080516001600160a01b039095168552602085019390935290151591830191909152151560608201526080015b60405180910390f35b3480156101c457600080fd5b506101d86101d3366004612dc0565b61045a565b6040516101af9190612ec9565b3480156101f157600080fd5b50610205610200366004612dc0565b610a1d565b6040516101af919061301f565b34801561021e57600080fd5b50610227610cd1565b6040519081526020016101af565b34801561024157600080fd5b50610255610250366004612d82565b610d68565b6040516101af999897969594939291906130b6565b34801561027657600080fd5b5061028a6102853660046131a4565b6112a1565b005b34801561029857600080fd5b506102276102a7366004612d82565b61153f565b3480156102b857600080fd5b506102276102c736600461332a565b611a6d565b3480156102d857600080fd5b506101d8611caf565b3480156102ed57600080fd5b506102056102fc366004612d82565b6121f9565b34801561030d57600080fd5b5061028a61031c366004612d82565b612332565b34801561032d57600080fd5b5061022761033c366004613416565b61254c565b61028a61034f366004612d82565b612643565b34801561036057600080fd5b5061022760095481565b34801561037657600080fd5b5061022761289b565b34801561038b57600080fd5b5060025461039f906001600160a01b031681565b6040516001600160a01b0390911681526020016101af565b3480156103c357600080fd5b5061028a6103d23660046134ae565b612900565b3480156103e357600080fd5b5061028a6103f2366004613549565b612b69565b34801561040357600080fd5b50610417610412366004613582565b612c02565b6040516101af91906135b7565b34801561043057600080fd5b5061022760085481565b34801561044657600080fd5b5060005461039f906001600160a01b031681565b60606000805b6008548110156104a4576000818152600360205260409020600101546001600160a01b0380861691160361049c5781610498816135e0565b9250505b600101610460565b5060008167ffffffffffffffff8111156104c0576104c06131d4565b6040519080825280602002602001820160405280156104f957816020015b6104e6612c91565b8152602001906001900390816104de5790505b5090506000805b600854811015610a13576000818152600360205260409020600101546001600160a01b03808816911603610a0b576000818152600360208181526040928390208351610160810185528154815260018201546001600160a01b0316928101929092526002810154938201939093529082018054919291606084019190610585906135f9565b80601f01602080910402602001604051908101604052809291908181526020018280546105b1906135f9565b80156105fe5780601f106105d3576101008083540402835291602001916105fe565b820191906000526020600020905b8154815290600101906020018083116105e157829003601f168201915b50505050508152602001600482018054610617906135f9565b80601f0160208091040260200160405190810160405280929190818152602001828054610643906135f9565b80156106905780601f1061066557610100808354040283529160200191610690565b820191906000526020600020905b81548152906001019060200180831161067357829003601f168201915b5050505050815260200160058201805480602002602001604051908101604052809291908181526020016000905b8282101561076a5783829060005260206000200180546106dd906135f9565b80601f0160208091040260200160405190810160405280929190818152602001828054610709906135f9565b80156107565780601f1061072b57610100808354040283529160200191610756565b820191906000526020600020905b81548152906001019060200180831161073957829003601f168201915b5050505050815260200190600101906106be565b505050508152602001600682018054610782906135f9565b80601f01602080910402602001604051908101604052809291908181526020018280546107ae906135f9565b80156107fb5780601f106107d0576101008083540402835291602001916107fb565b820191906000526020600020905b8154815290600101906020018083116107de57829003601f168201915b50505050508152602001600782018054610814906135f9565b80601f0160208091040260200160405190810160405280929190818152602001828054610840906135f9565b801561088d5780601f106108625761010080835404028352916020019161088d565b820191906000526020600020905b81548152906001019060200180831161087057829003601f168201915b50505050508152602001600882018054806020026020016040519081016040528092919081815260200182805480156108ef57602002820191906000526020600020905b81546001600160a01b031681526001909101906020018083116108d1575b5050505050815260200160098201805480602002602001604051908101604052809291908181526020016000905b828210156109c957838290600052602060002001805461093c906135f9565b80601f0160208091040260200160405190810160405280929190818152602001828054610968906135f9565b80156109b55780601f1061098a576101008083540402835291602001916109b5565b820191906000526020600020905b81548152906001019060200180831161099857829003601f168201915b50505050508152602001906001019061091d565b50505090825250600a919091015460ff16151560209091015283836109ed816135e0565b9450815181106109ff576109ff613633565b60200260200101819052505b600101610500565b5090949350505050565b6001600160a01b0381166000908152600760205260408120546060918167ffffffffffffffff811115610a5257610a526131d4565b604051908082528060200260200182016040528015610abe57816020015b610aab6040518060a0016040528060006001600160a01b03168152602001600081526020016000815260200160608152602001600081525090565b815260200190600190039081610a705790505b5090506000805b83811015610a13576001600160a01b0386166000908152600760205260408120805483908110610af757610af7613633565b90600052602060002001549050600060066000838152602001908152602001600020805480602002602001604051908101604052809291908181526020016000905b82821015610c325760008481526020908190206040805160a0810182526005860290920180546001600160a01b03168352600181015493830193909352600283015490820152600382018054919291606084019190610b97906135f9565b80601f0160208091040260200160405190810160405280929190818152602001828054610bc3906135f9565b8015610c105780601f10610be557610100808354040283529160200191610c10565b820191906000526020600020905b815481529060010190602001808311610bf357829003601f168201915b5050505050815260200160048201548152505081526020019060010190610b39565b50505050905060005b8151811015610cc657886001600160a01b0316828281518110610c6057610c60613633565b6020026020010151600001516001600160a01b031603610cbe57818181518110610c8c57610c8c613633565b6020026020010151868680610ca0906135e0565b975081518110610cb257610cb2613633565b60200260200101819052505b600101610c3b565b505050600101610ac5565b600080600160009054906101000a90046001600160a01b03166001600160a01b031663feaf968c6040518163ffffffff1660e01b815260040160a060405180830381865afa158015610d27573d6000803e3d6000fd5b505050506040513d601f19601f82011682018060405250810190610d4b9190613663565b505050915050806402540be400610d6291906136b3565b91505090565b60008060006060806060806060600080600360008c815260200190815260200160002060405180610160016040529081600082015481526020016001820160009054906101000a90046001600160a01b03166001600160a01b03166001600160a01b0316815260200160028201548152602001600382018054610dea906135f9565b80601f0160208091040260200160405190810160405280929190818152602001828054610e16906135f9565b8015610e635780601f10610e3857610100808354040283529160200191610e63565b820191906000526020600020905b815481529060010190602001808311610e4657829003601f168201915b50505050508152602001600482018054610e7c906135f9565b80601f0160208091040260200160405190810160405280929190818152602001828054610ea8906135f9565b8015610ef55780601f10610eca57610100808354040283529160200191610ef5565b820191906000526020600020905b815481529060010190602001808311610ed857829003601f168201915b5050505050815260200160058201805480602002602001604051908101604052809291908181526020016000905b82821015610fcf578382906000526020600020018054610f42906135f9565b80601f0160208091040260200160405190810160405280929190818152602001828054610f6e906135f9565b8015610fbb5780601f10610f9057610100808354040283529160200191610fbb565b820191906000526020600020905b815481529060010190602001808311610f9e57829003601f168201915b505050505081526020019060010190610f23565b505050508152602001600682018054610fe7906135f9565b80601f0160208091040260200160405190810160405280929190818152602001828054611013906135f9565b80156110605780601f1061103557610100808354040283529160200191611060565b820191906000526020600020905b81548152906001019060200180831161104357829003601f168201915b50505050508152602001600782018054611079906135f9565b80601f01602080910402602001604051908101604052809291908181526020018280546110a5906135f9565b80156110f25780601f106110c7576101008083540402835291602001916110f2565b820191906000526020600020905b8154815290600101906020018083116110d557829003601f168201915b505050505081526020016008820180548060200260200160405190810160405280929190818152602001828054801561115457602002820191906000526020600020905b81546001600160a01b03168152600190910190602001808311611136575b5050505050815260200160098201805480602002602001604051908101604052809291908181526020016000905b8282101561122e5783829060005260206000200180546111a1906135f9565b80601f01602080910402602001604051908101604052809291908181526020018280546111cd906135f9565b801561121a5780601f106111ef5761010080835404028352916020019161121a565b820191906000526020600020905b8154815290600101906020018083116111fd57829003601f168201915b505050505081526020019060010190611182565b505050508152602001600a820160009054906101000a900460ff1615151515815250509050806000015181602001518260400151836060015184608001518560a001518660c001518760e00151886101400151995099509950995099509950995099509950509193959799909294969850565b6000546001600160a01b031633146112ed5760405162461bcd60e51b815260206004820152600a60248201526927b7363c9030b236b4b760b11b60448201526064015b60405180910390fd5b60008281526004602090815260408083206003909252909120600282015460ff161561134f5760405162461bcd60e51b8152602060048201526011602482015270105b1c9958591e4818dbdb999a5c9b5959607a1b60448201526064016112e4565b60008260010154116113975760405162461bcd60e51b81526020600482015260116024820152704e6f20657363726f7765642066756e647360781b60448201526064016112e4565b600282018054600161ffff1990911661010086151502178117909155600a8201805460ff1916821790558201805460009182905590846113e45760018301546001600160a01b03166113f0565b83546001600160a01b03165b90506000816001600160a01b03168360405160006040518083038185875af1925050503d806000811461143f576040519150601f19603f3d011682016040523d82523d6000602084013e611444565b606091505b50509050806114875760405162461bcd60e51b815260206004820152600f60248201526e151c985b9cd9995c8819985a5b1959608a1b60448201526064016112e4565b856114f15760018401805486546001600160a01b039081166001600160a01b03198316811790935560028701546040519081529116919082908a907fddd64180d9701c7ede08673ac8106484ff983a472929330d4fbde4e35d65cb069060200160405180910390a4505b604080516001600160a01b0384168152871515602082015288917f8fdd4548a8481406b6e29c0d6f25e27cd72502f79f4adf409468502e7920dabc910160405180910390a250505050505050565b60008181526003602081815260408084208151610160810183528154815260018201546001600160a01b03169381019390935260028101549183019190915291820180548493916060840191611594906135f9565b80601f01602080910402602001604051908101604052809291908181526020018280546115c0906135f9565b801561160d5780601f106115e25761010080835404028352916020019161160d565b820191906000526020600020905b8154815290600101906020018083116115f057829003601f168201915b50505050508152602001600482018054611626906135f9565b80601f0160208091040260200160405190810160405280929190818152602001828054611652906135f9565b801561169f5780601f106116745761010080835404028352916020019161169f565b820191906000526020600020905b81548152906001019060200180831161168257829003601f168201915b5050505050815260200160058201805480602002602001604051908101604052809291908181526020016000905b828210156117795783829060005260206000200180546116ec906135f9565b80601f0160208091040260200160405190810160405280929190818152602001828054611718906135f9565b80156117655780601f1061173a57610100808354040283529160200191611765565b820191906000526020600020905b81548152906001019060200180831161174857829003601f168201915b5050505050815260200190600101906116cd565b505050508152602001600682018054611791906135f9565b80601f01602080910402602001604051908101604052809291908181526020018280546117bd906135f9565b801561180a5780601f106117df5761010080835404028352916020019161180a565b820191906000526020600020905b8154815290600101906020018083116117ed57829003601f168201915b50505050508152602001600782018054611823906135f9565b80601f016020809104026020016040519081016040528092919081815260200182805461184f906135f9565b801561189c5780601f106118715761010080835404028352916020019161189c565b820191906000526020600020905b81548152906001019060200180831161187f57829003601f168201915b50505050508152602001600882018054806020026020016040519081016040528092919081815260200182805480156118fe57602002820191906000526020600020905b81546001600160a01b031681526001909101906020018083116118e0575b5050505050815260200160098201805480602002602001604051908101604052809291908181526020016000905b828210156119d857838290600052602060002001805461194b906135f9565b80601f0160208091040260200160405190810160405280929190818152602001828054611977906135f9565b80156119c45780601f10611999576101008083540402835291602001916119c4565b820191906000526020600020905b8154815290600101906020018083116119a757829003601f168201915b50505050508152602001906001019061192c565b50505090825250600a919091015460ff16151560209091015261014081015190915015611a365760405162461bcd60e51b815260206004820152600c60248201526b105b1c9958591e481cdbdb1960a21b60448201526064016112e4565b6000611a40610cd1565b9050808260400151670de0b6b3a7640000611a5b91906136e9565b611a659190613700565b949350505050565b6000808711611abe5760405162461bcd60e51b815260206004820152601c60248201527f5072696365206d7573742062652067726561746572207468616e20300000000060448201526064016112e4565b6002546040516373bed91960e11b81526001600160a01b038a811660048301529091169063e77db23290602401602060405180830381865afa158015611b08573d6000803e3d6000fd5b505050506040513d601f19601f82011682018060405250810190611b2c9190613722565b611b715760405162461bcd60e51b815260206004820152601660248201527513dddb995c881b9bdd0812d650c8185c1c1c9bdd995960521b60448201526064016112e4565b6008805460009182611b82836135e0565b9091555060008181526003602081905260409091208281556001810180546001600160a01b0319166001600160a01b038e16179055600281018b90559192508101611bcd8982613790565b5060048101611bdc8882613790565b5060068101611beb8682613790565b5060078101611bfa8582613790565b50611c09600582016000612cf6565b60005b8651811015611c5d5781600501878281518110611c2b57611c2b613633565b60209081029190910181015182546001810184556000938452919092200190611c549082613790565b50600101611c0c565b50896001600160a01b0316827f23fb658c1698b92f5fe511a079c17ecf7965cbc3f1b873328c67e2c3c0820f1f8b604051611c9a91815260200190565b60405180910390a35098975050505050505050565b60085460609060008167ffffffffffffffff811115611cd057611cd06131d4565b604051908082528060200260200182016040528015611d0957816020015b611cf6612c91565b815260200190600190039081611cee5790505b50905060005b828110156121f2576000818152600360208181526040928390208351610160810185528154815260018201546001600160a01b0316928101929092526002810154938201939093529082018054919291606084019190611d6e906135f9565b80601f0160208091040260200160405190810160405280929190818152602001828054611d9a906135f9565b8015611de75780601f10611dbc57610100808354040283529160200191611de7565b820191906000526020600020905b815481529060010190602001808311611dca57829003601f168201915b50505050508152602001600482018054611e00906135f9565b80601f0160208091040260200160405190810160405280929190818152602001828054611e2c906135f9565b8015611e795780601f10611e4e57610100808354040283529160200191611e79565b820191906000526020600020905b815481529060010190602001808311611e5c57829003601f168201915b5050505050815260200160058201805480602002602001604051908101604052809291908181526020016000905b82821015611f53578382906000526020600020018054611ec6906135f9565b80601f0160208091040260200160405190810160405280929190818152602001828054611ef2906135f9565b8015611f3f5780601f10611f1457610100808354040283529160200191611f3f565b820191906000526020600020905b815481529060010190602001808311611f2257829003601f168201915b505050505081526020019060010190611ea7565b505050508152602001600682018054611f6b906135f9565b80601f0160208091040260200160405190810160405280929190818152602001828054611f97906135f9565b8015611fe45780601f10611fb957610100808354040283529160200191611fe4565b820191906000526020600020905b815481529060010190602001808311611fc757829003601f168201915b50505050508152602001600782018054611ffd906135f9565b80601f0160208091040260200160405190810160405280929190818152602001828054612029906135f9565b80156120765780601f1061204b57610100808354040283529160200191612076565b820191906000526020600020905b81548152906001019060200180831161205957829003601f168201915b50505050508152602001600882018054806020026020016040519081016040528092919081815260200182805480156120d857602002820191906000526020600020905b81546001600160a01b031681526001909101906020018083116120ba575b5050505050815260200160098201805480602002602001604051908101604052809291908181526020016000905b828210156121b2578382906000526020600020018054612125906135f9565b80601f0160208091040260200160405190810160405280929190818152602001828054612151906135f9565b801561219e5780601f106121735761010080835404028352916020019161219e565b820191906000526020600020905b81548152906001019060200180831161218157829003601f168201915b505050505081526020019060010190612106565b50505090825250600a919091015460ff16151560209091015282518390839081106121df576121df613633565b6020908102919091010152600101611d0f565b5092915050565b606060066000838152602001908152602001600020805480602002602001604051908101604052809291908181526020016000905b828210156123275760008481526020908190206040805160a0810182526005860290920180546001600160a01b0316835260018101549383019390935260028301549082015260038201805491929160608401919061228c906135f9565b80601f01602080910402602001604051908101604052809291908181526020018280546122b8906135f9565b80156123055780601f106122da57610100808354040283529160200191612305565b820191906000526020600020905b8154815290600101906020018083116122e857829003601f168201915b505050505081526020016004820154815250508152602001906001019061222e565b505050509050919050565b6000818152600460209081526040808320600390925290912081546001600160a01b031633146123905760405162461bcd60e51b81526020600482015260096024820152682737ba10313abcb2b960b91b60448201526064016112e4565b600282015460ff16156123d95760405162461bcd60e51b8152602060048201526011602482015270105b1c9958591e4818dbdb999a5c9b5959607a1b60448201526064016112e4565b60008260010154116124215760405162461bcd60e51b81526020600482015260116024820152704e6f20657363726f7765642066756e647360781b60448201526064016112e4565b600282018054600160ff199182168117909255600a83018054909116821790558083018054600091829055918301546040516001600160a01b039091169083908381818185875af1925050503d8060008114612499576040519150601f19603f3d011682016040523d82523d6000602084013e61249e565b606091505b50509050806124e15760405162461bcd60e51b815260206004820152600f60248201526e151c985b9cd9995c8819985a5b1959608a1b60448201526064016112e4565b60018301805485546001600160a01b039081166001600160a01b031983168117909355600286015460405190815291169190829088907fddd64180d9701c7ede08673ac8106484ff983a472929330d4fbde4e35d65cb069060200160405180910390a4505050505050565b600086815260036020526040812060018101546001600160a01b038a81169116146125a55760405162461bcd60e51b81526020600482015260096024820152682737ba1037bbb732b960b91b60448201526064016112e4565b600381016125b38682613790565b50600481016125c28582613790565b50600681016125d18782613790565b50600781016125e08482613790565b5060005b8751811015612635578160050188828151811061260357612603613633565b6020908102919091018101518254600181018455600093845291909220019061262c9082613790565b506001016125e4565b509698975050505050505050565b6000818152600360205260409020600a81015460ff16156126955760405162461bcd60e51b815260206004820152600c60248201526b105b1c9958591e481cdbdb1960a21b60448201526064016112e4565b61269e8261153f565b3410156126e05760405162461bcd60e51b815260206004820152601060248201526f092dce6eaccccd2c6d2cadce8408aa8960831b60448201526064016112e4565b600082815260046020526040902060010154156127335760405162461bcd60e51b8152602060048201526011602482015270105b1c9958591e4819195c1bdcda5d1959607a1b60448201526064016112e4565b6002546040516373bed91960e11b81523360048201526001600160a01b039091169063e77db23290602401602060405180830381865afa15801561277b573d6000803e3d6000fd5b505050506040513d601f19601f8201168201806040525081019061279f9190613722565b6127e45760405162461bcd60e51b8152602060048201526016602482015275109d5e595c881b9bdd0812d650c8185c1c1c9bdd995960521b60448201526064016112e4565b60408051608081018252338082523460208084018281526000858701818152606087018281528a83526004855291889020965187546001600160a01b0319166001600160a01b0390911617875591516001870155905160029095018054915161ffff1990921695151561ff00191695909517610100911515919091021790935592519283529184917f71284872bb4c088a81295dff2513729babbccfeda38a8d824bb1a73bcaab494e910160405180910390a35050565b60008080805b6008548110156121f257600081815260056020526040902060020154156128f857600081815260056020526040812060028101546001909101546128e59190613700565b9050838111156128f6578093508192505b505b6001016128a1565b60018410158015612912575060058411155b6129535760405162461bcd60e51b8152602060048201526012602482015271526174696e67206d75737420626520312d3560701b60448201526064016112e4565b60008581526003602090815260408220600881018054600180820183559185528385200180546001600160a01b0319166001600160a01b0387161790556009820180549182018155845291909220016129ad848683613850565b50600660008781526020019081526020016000206040518060a00160405280846001600160a01b0316815260200188815260200187815260200186868080601f0160208091040260200160405190810160405280939291908181526020018383808284376000920182905250938552505050602091820181905283546001808201865594825290829020835160059092020180546001600160a01b0319166001600160a01b0390921691909117815590820151928101929092556040810151600283015560608101519091906003820190612a889082613790565b50608091909101516004909101556001600160a01b0382166000908152600760209081526040808320805460018181018355918552838520018a905589845260059092528220018054879290612adf908490613911565b90915550506000868152600560205260408120600201805491612b01836135e0565b9190505550816001600160a01b0316867f4beb3faed0901f48c8eaa53db80247f723ddeb08676b6badb9ee2f191d1ac2df878787604051612b4493929190613924565b60405180910390a360098054906000612b5c836135e0565b9190505550505050505050565b6000838152600660205260408120805484908110612b8957612b89613633565b90600052602060002090600502019050806004016000815480929190612bae906135e0565b9190505550816001600160a01b031683857fc58deae63c2d94e1502a392380f59901dc4cd3c3bbc40308b6189decf09671d58460040154604051612bf491815260200190565b60405180910390a450505050565b60008281526003602052604090206001810154606091906001600160a01b03868116911614612c5f5760405162461bcd60e51b81526020600482015260096024820152682737ba1037bbb732b960b91b60448201526064016112e4565b6002018290555060408051808201909152600d81526c141c9a58d9481d5c19185d1959609a1b60208201529392505050565b6040518061016001604052806000815260200160006001600160a01b0316815260200160008152602001606081526020016060815260200160608152602001606081526020016060815260200160608152602001606081526020016000151581525090565b5080546000825590600052602060002090810190612d149190612d17565b50565b80821115612d34576000612d2b8282612d38565b50600101612d17565b5090565b508054612d44906135f9565b6000825580601f10612d54575050565b601f016020900490600052602060002090810190612d1491905b80821115612d345760008155600101612d6e565b600060208284031215612d9457600080fd5b5035919050565b6001600160a01b0381168114612d1457600080fd5b8035612dbb81612d9b565b919050565b600060208284031215612dd257600080fd5b8135612ddd81612d9b565b9392505050565b6000815180845260005b81811015612e0a57602081850181015186830182015201612dee565b506000602082860101526020601f19601f83011685010191505092915050565b60008282518085526020808601955060208260051b8401016020860160005b84811015612e7757601f19868403018952612e65838351612de4565b98840198925090830190600101612e49565b5090979650505050505050565b60008151808452602080850194506020840160005b83811015612ebe5781516001600160a01b031687529582019590820190600101612e99565b509495945050505050565b600060208083018184528085518083526040925060408601915060408160051b87010184880160005b8381101561301157888303603f19018552815180518452878101516001600160a01b03811689860152610160905087820151888601526060808301518282880152612f3f83880182612de4565b9250505060808083015186830382880152612f5a8382612de4565b9250505060a08083015186830382880152612f758382612e2a565b9250505060c08083015186830382880152612f908382612de4565b9250505060e08083015186830382880152612fab8382612de4565b925050506101008083015186830382880152612fc78382612e84565b925050506101208083015186830382880152612fe38382612e2a565b92505050610140808301519250612ffd8187018415159052565b509588019593505090860190600101612ef2565b509098975050505050505050565b600060208083018184528085518083526040925060408601915060408160051b87010184880160005b8381101561301157888303603f19018552815180516001600160a01b031684528781015188850152868101518785015260608082015160a0828701819052919061309483880182612de4565b6080948501519790940196909652505094870194925090860190600101613048565b60006101208b8352602060018060a01b038c16818501528a60408501528160608501526130e58285018b612de4565b915083820360808501526130f9828a612de4565b915083820360a08501528188518084528284019150828160051b850101838b0160005b8381101561314a57601f19878403018552613138838351612de4565b9486019492509085019060010161311c565b505086810360c088015261315e818b612de4565b94505050505082810360e08401526131768186612de4565b91505061318861010083018415159052565b9a9950505050505050505050565b8015158114612d1457600080fd5b600080604083850312156131b757600080fd5b8235915060208301356131c981613196565b809150509250929050565b634e487b7160e01b600052604160045260246000fd5b604051601f8201601f1916810167ffffffffffffffff81118282101715613213576132136131d4565b604052919050565b600082601f83011261322c57600080fd5b813567ffffffffffffffff811115613246576132466131d4565b613259601f8201601f19166020016131ea565b81815284602083860101111561326e57600080fd5b816020850160208301376000918101602001919091529392505050565b600082601f83011261329c57600080fd5b8135602067ffffffffffffffff808311156132b9576132b96131d4565b8260051b6132c88382016131ea565b93845285810183019383810190888611156132e257600080fd5b84880192505b8583101561331e578235848111156133005760008081fd5b61330e8a87838c010161321b565b83525091840191908401906132e8565b98975050505050505050565b600080600080600080600060e0888a03121561334557600080fd5b61334e88612db0565b965060208801359550604088013567ffffffffffffffff8082111561337257600080fd5b61337e8b838c0161321b565b965060608a013591508082111561339457600080fd5b6133a08b838c0161321b565b955060808a01359150808211156133b657600080fd5b6133c28b838c0161328b565b945060a08a01359150808211156133d857600080fd5b6133e48b838c0161321b565b935060c08a01359150808211156133fa57600080fd5b506134078a828b0161321b565b91505092959891949750929550565b600080600080600080600060e0888a03121561343157600080fd5b61343a88612db0565b965060208801359550604088013567ffffffffffffffff8082111561345e57600080fd5b61346a8b838c0161328b565b965060608a013591508082111561348057600080fd5b61348c8b838c0161321b565b955060808a01359150808211156134a257600080fd5b6133c28b838c0161321b565b6000806000806000608086880312156134c657600080fd5b8535945060208601359350604086013567ffffffffffffffff808211156134ec57600080fd5b818801915088601f83011261350057600080fd5b81358181111561350f57600080fd5b89602082850101111561352157600080fd5b602083019550809450505050606086013561353b81612d9b565b809150509295509295909350565b60008060006060848603121561355e57600080fd5b8335925060208401359150604084013561357781612d9b565b809150509250925092565b60008060006060848603121561359757600080fd5b83356135a281612d9b565b95602085013595506040909401359392505050565b602081526000612ddd6020830184612de4565b634e487b7160e01b600052601160045260246000fd5b6000600182016135f2576135f26135ca565b5060010190565b600181811c9082168061360d57607f821691505b60208210810361362d57634e487b7160e01b600052602260045260246000fd5b50919050565b634e487b7160e01b600052603260045260246000fd5b805169ffffffffffffffffffff81168114612dbb57600080fd5b600080600080600060a0868803121561367b57600080fd5b61368486613649565b94506020860151935060408601519250606086015191506136a760808701613649565b90509295509295909350565b80820260008212600160ff1b841416156136cf576136cf6135ca565b81810583148215176136e3576136e36135ca565b92915050565b80820281158282048414176136e3576136e36135ca565b60008261371d57634e487b7160e01b600052601260045260246000fd5b500490565b60006020828403121561373457600080fd5b8151612ddd81613196565b601f82111561378b576000816000526020600020601f850160051c810160208610156137685750805b601f850160051c820191505b8181101561378757828155600101613774565b5050505b505050565b815167ffffffffffffffff8111156137aa576137aa6131d4565b6137be816137b884546135f9565b8461373f565b602080601f8311600181146137f357600084156137db5750858301515b600019600386901b1c1916600185901b178555613787565b600085815260208120601f198616915b8281101561382257888601518255948401946001909101908401613803565b50858210156138405787850151600019600388901b60f8161c191681555b5050505050600190811b01905550565b67ffffffffffffffff831115613868576138686131d4565b61387c8361387683546135f9565b8361373f565b6000601f8411600181146138b057600085156138985750838201355b600019600387901b1c1916600186901b17835561390a565b600083815260209020601f19861690835b828110156138e157868501358255602094850194600190920191016138c1565b50868210156138fe5760001960f88860031b161c19848701351681555b505060018560011b0183555b5050505050565b808201808211156136e3576136e36135ca565b83815260406020820152816040820152818360608301376000818301606090810191909152601f909201601f191601019291505056fea2646970667358221220292f416cb1c1b3e1eaaa7cecee8fb5044fafa8e6f4879bb198dbf0c7bd8a35b764736f6c63430008180033",
  "linkReferences": {},
  "deployedLinkReferences": {}
}